:020000040800F2
:10000000080C002045010008930E0008950E00081A
:10001000970E0008990E00089B0E000800000000D3
:100020000000000000000000000000009D0E00081D
:100030009F0E000800000000A10E000869100008D3
:100040005F0100085F0100085F0100085F01000810
:100050005F0100085F010008450F00085F0100080C
:100060005F0100085F0100085F0100085F010008F0
:100070005F0100085F0100085F0100085F010008E0
:100080005F0100085F0100085F0100085F010008D0
:100090005F0100085F0100085F0100085F010008C0
:1000A0005F0100085F0100085F0100085F010008B0
:1000B0005F0100085F0100085F0100085F010008A0
:1000C0005F0100085F0100085F0100085F01000890
:1000D0005F0100089B1200085F0100085F01000833
:1000E000670F00085F0100085F0100085F0100085A
:1000F0005F0100085F0100085F0100085F01000860
:100100005F0100085F0100085F0100085F0100084F
:100110005F0100085F0100085F0100085F0100083F
:100120005F0100085F0100085F0100085F0100082F
:10013000DFF80CD001F078FA00480047650E00089F
:10014000080C00200648804706480047FEE7FEE707
:10015000FEE7FEE7FEE7FEE7FEE7FEE7FEE7FEE777
:1001600009020008310100080CB500224C48009239
:100170000192016841F4803101604FF4A06301688D
:1001800001F4003101910099491C0091019911B9C4
:1001900000999942F3D10168890333D50121019176
:1001A00040490A6842F010020A600A6822F003021D
:1001B0000A600A6842F002020A60416841604168D0
:1001C0004160416841F480614160416821F47C11E3
:1001D0004160416841F4E8114160016841F080717B
:1001E000016001688901FCD5416821F0030141608B
:1001F000416841F0020141604168C1F38101022977
:10020000FAD10CBD01920CBD254810B5016841F032
:10021000010101604168244A114041600168234A9C
:1002200011400160016821F480210160416821F4DE
:10023000FE0141604FF41F018160FFF795FF1C49EB
:100240004FF00060086010BD154A10B55068194B9A
:1002500010F00C01184803D0042901D0082901D05E
:10026000036012E05168536801F470114FF002040A
:1002700013F4803F04EB914102D053689B0301D5F6
:100280000E4B00E00B4B5943016051680A4AC1F321
:100290000311121D515C0268CA40026010BD0000CB
:1002A00000100240002002400000FFF8FFFFF6FEB1
:1002B00008ED00E000127A000000002000093D0077
:1002C0002849084328490860704730B50F23C27891
:1002D00001780125F2B1244A126801F1E02102F40B
:1002E000E062C2F5E062120AC2F10404D34042782F
:1002F000A24084781C401443220181F80024007835
:1003000000F01F018D404009800000F1E020C0F89E
:10031000005130BD01F01F0085404809800000F108
:10032000E020C0F8805130BD104A114001430E4812
:10033000001F016070470C4A121D0029116801D08E
:10034000014300E08143116070474FF0E021042831
:10035000086903D020F004000861704740F00400F1
:10036000FAE700000000FA050CED00E080FFFF1F37
:1003700001684FF6FE72114001600021016041608A
:100380008160C1606A496A4A0839904203D148686D
:1003900040F00F0006E0664A1432904204D14868EB
:1003A00040F0F00048607047614A2832904203D123
:1003B000486840F47060F5E75D4A3C32904203D1F2
:1003C000486840F47040EDE7594A5032904203D1FA
:1003D000486840F47020E5E7554A6432904203D102
:1003E000486840F47000DDE7514A7832904203D10A
:1003F000486840F07060D5E74E4A111F904203D123
:10040000086840F00F0006E04A4A1432904204D1D6
:10041000086840F0F00008607047464A2832904271
:1004200003D1086840F47060F5E7424A3C329042DC
:1004300003D1086840F47040EDE73E4A50329042E4
:10044000EAD1086840F47020E5E730B5026847F665
:10045000F0739A430C6A8B682343D1E904452C431B
:1004600023438C692343CC6923434C6A23438C6A1E
:10047000234313430360CA6842600A688260496884
:10048000C16030BD0021016041608160C1600161D7
:1004900041618161C16101624162816270470029ED
:1004A000016802D041F0010102E04FF6FE721140F6
:1004B00001607047002A026801D00A4300E08A43C5
:1004C0000260704741607047406880B270470246E2
:1004D0000020D10002D51749083901E01449083934
:1004E0000968114200D001207047C10003D51149AD
:1004F000091F086070470E49083948607047024676
:100500000020D10002D50B49083901E0084908391B
:100510000968114200D001207047C10003D5054988
:10052000091F086070470249083948607047000099
:100530000800024008040240374900200860091DF5
:100540000860091D0860091D0860334933481431EB
:100550000860704730B5304A8379016853B3136837
:100560008B431360111D0B680468A3430B60017972
:1005700011440B68046823430B60274B0833196848
:100580000468A14319601C1D21680568A943216006
:100590004179102905D011440A68006802430A60B5
:1005A00030BD196802681143196021680068014371
:1005B000216030BD0079104402688A43026030BD7A
:1005C0000021016001710C22427181717047124952
:1005D00010310A6802430A60704701460E4A002043
:1005E000143212680A4200D0012070470A491431BF
:1005F00008607047084A014600201268064B0A400E
:1006000014331B680B4202D0002A00D0012070472F
:10061000014914310860704700040140FFFF0F00DA
:100620008F4910B5884206D10121042000F049FA13
:10063000002104203BE08B49884206D1012108209B
:1006400000F03FFA0021082031E08749884206D1B6
:100650000121102000F035FA0021102027E0834905
:10066000884206D10121202000F02BFA0021202011
:100670001DE07F49884206D10121402000F021FA87
:100680000021402013E07B49884206D101218020CF
:1006900000F017FA0021802009E0774988420AD14A
:1006A00084150121204600F00CFA00212046BDE807
:1006B000104000F006BA10BD10B50121084600F048
:1006C00000FA0021BDE81040012000F0FAB9F0B5B1
:1006D000CC78002204F00F03E40601D58C78234384
:1006E0000C784FF00F0C14F0FF0F4FF0010E1BD0E1
:1006F00005680E880EFA02F42640A64210D1960034
:100700000CFA06F725EA070703FA06F5CE783D430B
:10071000282E02D0482E02D002E0446100E004619D
:10072000521C082AE5D305600A88FF2A1CD94468B0
:10073000002202F108060EFA06F50E882E40AE429F
:100740000ED196000CFA06F7BC4303FA06F7CE78F2
:100750003C43282E00D14561CE78482E00D105615A
:10076000521C082AE5D34460F0BD4FF6FF710180AA
:10077000022181700421C1707047024600209268F6
:100780000A4200D001207047806880B2704702465C
:100790000020D2680A4200D001207047C06880B2B1
:1007A000704701617047416170470AB1016170474C
:1007B00041617047C160704741F48032826181615C
:1007C00082618169806970472C4B10B51A684FF6B9
:1007D0008074224042EA00100843186010BD284986
:1007E000C8617047F0B5254C002801DAE36900E0E4
:1007F0006368450D2E0185B2C0F30157B540C0F3C3
:100800000342032F05D0C6020AD503269640B34300
:1008100007E023F07062636823F07063636002E0B6
:10082000AB4343F0706201B12A43002801DAE26170
:10083000F0BD6260F0BD10B58A0721F003040F49D6
:10084000120F21440F238C6893409C438C608B686B
:10085000904003438B6010BD0949C1F8DC0070472C
:1008600000080140000C014000100140001401404C
:1008700000180140001C0140002001400000014020
:1008800000002042A548016841F001010160416873
:10089000A34A114041600168A24A11400160016809
:1008A00021F480210160416821F4FE0141604FF490
:1008B0001F018160704799490A6822F480320A60FA
:1008C0000A6822F480220A60B0F5803F07D0B0F5B4
:1008D000802F03D1086840F4A020086070470868A2
:1008E00040F48030F9E70346002059098B4A01297A
:1008F0000AD002290AD0516A03F01F020123934053
:100900000B4200D0012070471168F5E7116AF3E748
:1009100018B500204FF4A06400903120FFF7E3FFEA
:100920000099491C0091A14201D00028F5D0312046
:10093000FFF7D9FF002800D0012018BD774A1168C1
:1009400021F0F80141EAC000106070477649086064
:100950007047724B5A68084322F47C121043586067
:1009600070477149086670476C4A516821F003016D
:100970000143516070476948406800F00C007047BF
:10098000664A516821F0F001014351607047634AA3
:10099000516821F4E0610143516070475F4A51683A
:1009A00021F4605141EAC000506070475B4A002961
:1009B000517A01D0014300E08143517270475A4996
:1009C000C1F8D8007047554A516821F440410143AD
:1009D000516070475149002281F8202081F8202081
:1009E000012802D0042802D1052081F82000704798
:1009F0004E490860704749490A6A02430A627047D3
:100A00004A4944390860704730B5444A5168484BF8
:100A100011F00C0103D0042901D0082901D0036092
:100A200012E05168536801F470114FF0020413F49E
:100A3000803F04EB914102D053689B0301D53D4BAD
:100A400000E03B4B5943016051680F2303EA111149
:100A5000394B5C5C0168E14041605468072505EA58
:100A600014241C5D21FA04F48460546805EAD4243B
:100A70001B5DD940C1605268032303EA92322E4BBA
:100A80001B1F9A5CB1FBF2F1016130BD234A0029C2
:100A9000516901D0014300E08143516170471F4A11
:100AA0000029916901D0014300E0814391617047C1
:100AB0001A4A0029D16901D0014300E08143D16184
:100AC0007047164A0029D16801D0014300E08143F4
:100AD000D1607047114A0029116901D0014300E03B
:100AE00081431161704711494039086070470E49D0
:100AF000C86470470949C87170470848416A41F0A5
:100B0000807141627047054A0146002092680A429E
:100B100000D00120704701498872704700100240E0
:100B20000000FFF8FFFFF6FE000042428004424250
:100B300000127A0000093D0018000020C44910B5D9
:100B400088420AD101218C032046FFF7BAFF2046D4
:100B5000BDE810400021FFF7B4BFBE49884202D172
:100B600001214C0410E0BC49884202D101218C04CF
:100B70000AE0BA49884202D10121CC0404E0B84914
:100B800088420AD101210C052046FFF7A3FF204629
:100B9000BDE810400021FFF79DBF10BD30B50446F1
:100BA000008A85B00D464CF6FF710840E988014384
:100BB0002182A0894EF6F3110840A9882A891143A1
:100BC0006A8902431143A181A08A4FF6FF41084080
:100BD000A9890143A1826846FFF716FF9C48844219
:100BE00001D1039800E00298A189090400EBC0013B
:100BF00001EB0010296801D5490000E08900B0FB35
:100C0000F1F06422B0FBF2F109010B096FF0180555
:100C10006B4300EB8300A3891D044FF0320306D51C
:100C200003EBC000B0FBF2F000F0070005E003EBBF
:100C30000010B0FBF2F000F00F000843208105B077
:100C400030BD4FF41651016000218180C1800181C7
:100C50000C2242818181704710B5028A4FF2FF0356
:100C60001A400B884C8823438C88C9880C43234343
:100C70001343038210BD0021018041808180C18027
:100C800070470029818902D041F4005101E021F42C
:100C900000518181704710B5C1F3421301F01F0468
:100CA0000121A140012B07D0022B07D01430002ACC
:100CB000026805D00A4304E00C30F8E71030F6E78C
:100CC0008A43026010BD002A828A01D00A4300E0F4
:100CD0008A4382827047028A22F00F020282028ACD
:100CE0000A4302827047828922F4006282818289EB
:100CF0000A43828170470029818902D041F00201B4
:100D000001E021F0020181817047028A22F0200275
:100D10000282028A0A43028270470029018A02D0B5
:100D200041F4804101E021F4804101827047C1F328
:100D30000801818070478088C0F30800704781896E
:100D400041F0010181817047028BD2B20283028B94
:100D500042EA012101837047028B02F47F42028341
:100D6000028B0A43028370470029818A02D041F036
:100D7000200101E021F02001818270470029818A51
:100D800002D041F0100101E021F010018182704792
:100D90000029818A02D041F0080101E021F0080118
:100DA000818270470029818902D041F4004101E02D
:100DB000C1F30E01818170470029818A02D041F47C
:100DC000006101E021F4006181827047828A22F093
:100DD00004028282828A0A43828270470029818AC1
:100DE00002D041F0020101E021F00201818270474E
:100DF0000246002012880A4200D001207047C943F1
:100E00000180704770B501F01F0501260024C1F371
:100E1000421306FA05F2012B0FD0022B0FD0838A62
:100E20004FEA11210088134206FA01F600EA060093
:100E300001D000B10124204670BD8389F0E7038A08
:100E4000EEE70A0A01219140C94301807047000082
:100E5000003801400044004000480040004C004081
:100E60000050004090B000F033FA00F0AAF800F013
:100E700007F900F017F800F05BFA0DA9684600F0DA
:100E8000BAFA0028F9D1BDF83610684600F06AFABF
:100E9000F3E77047FEE7FEE7FEE7FEE770477047BF
:100EA000704700002DE9FF4101210520FFF7F7FD04
:100EB0004FF4C060FFF704FA06208DF80800012403
:100EC0008DF809408DF80A408DF80B4002A8FFF715
:100ED000FCF928208DF8080002A8FFF7F6F9ADF814
:100EE0000C4004268DF80F6003A92848FFF7EFFB9C
:100EF00000210846FFF79FFC00278DF804700820AA
:100F00008DF8050000948DF806406846FFF722FB37
:100F10006503ADF80C508DF80F6003A91C48FFF76E
:100F2000D6FB0D210220FFF786FC8DF804700C2003
:100F30008DF8050000958DF806406846FFF70AFB1E
:100F4000BDE8FF8110B50120FFF754FB002809D050
:100F50001048016881F020010160BDE810400120C7
:100F6000FFF756BB10BD10B54FF400542046FFF7F5
:100F700041FB002809D00748016881F001010160A8
:100F80002046BDE81040FFF743BB10BD00080140FC
:100F9000001001400C0C0140B0F1807F01D3012012
:100FA000704720F07F414FF0E020491E41612F4AF9
:100FB000F02182F8141D00218161072101610020C8
:100FC00070472B4810B500682A49B0FBF1F0FFF7D5
:100FD000E3FF002800D0FEE710BD01B526480099C8
:100FE00001604FF0E0210A6942F001020A610168E4
:100FF0000029FCD108BD20480168002902D0016801
:10100000491E0160704701B5194801681B48B1FBD2
:10101000F0F0FFF7C1FF00204FF0E02103E00A6984
:10102000D203FCD5401C009A9042F8D3086920F006
:101030000100086108BD01B50D4801684FF47A70E0
:10104000B1FBF0F0FFF7A8FF00204FF0E02103E034
:101050000A69D203FCD5401C009A9042F8D3086973
:1010600020F00100086108BDC5E700000FE000E0C6
:1010700000000020A08601002800002040420F0050
:101080002DE9F04391B001210420FFF708FD012173
:101090008803FFF704FD4FF40070ADF83C00182002
:1010A0008DF83F000320854C8DF83E000FA92046A7
:1010B000FFF70DFB2115ADF83C1004218DF83F1012
:1010C0000FA92046FFF703FB00244FF4E1300B90FB
:1010D000ADF834400C20DFF8E891ADF83040ADF8C1
:1010E0003600ADF83240ADF838400BA94846FFF75E
:1010F00055FD4FF44070FFF7E3F825208DF8000010
:1011000006208DF801008DF8024001208DF80300C3
:101110006846FFF7DAF8012240F224414846FFF71B
:10112000BAFD012240214846FFF7CDFD01210846C6
:10113000FFF7ACFC09F10406624801A94FF47A7785
:10114000009681E891008025CDE904452020069491
:10115000CDE907404FF44050CDE90904DFF868813C
:1011600069464046FFF771F9A802FFF7BEF9012270
:1011700008214046FFF79EF901214046FFF78FF90D
:1011800001210846FFF782FC50480794CDE9006032
:101190001020CDE90207CDE904450002CDE9084061
:1011A00006940A94484C6946143C2046FFF74DF9D2
:1011B00001212046FFF773F901214846FFF761FD41
:1011C00011B0BDE8F08310B50446FFF7B0FD8021F3
:1011D0002046FFF70DFE0028F9D010BD2DE9F041A3
:1011E00015460E460746002405E0315D3846FFF7F8
:1011F000EAFF641CE4B2AC42F7D340213846FFF763
:10120000F7FD0028F9D0BDE8F08170B50D4606461F
:1012100000243046295DFFF7D6FF641C285D0028B6
:10122000F7D140213046FFF7E3FD0028F9D070BD2B
:1012300070B50446080ACDB201462046FFF777FD97
:1012400080212046FFF7D4FD0028F9D0294620460A
:10125000FFF76DFD80212046FFF7CAFD0028F9D079
:1012600070BD70B5164D0446C1B22846FFF75FFD4C
:1012700080212846FFF7BCFD0028F9D0204670BD2C
:1012800010B50F4C20212046FFF7B2FD0028F9D001
:101290002046BDE81040FFF74EBD10B5084C40F2A7
:1012A00024412046FFF7AEFD002806D000F080F86C
:1012B0002046BDE81040FFF73EBD10BD00080140CC
:1012C0000038014034000020580002401C04002077
:1012D00038B501210820FFF7E2FB2020ADF800001F
:1012E00010208DF803000320104C8DF80200694691
:1012F0002046FFF7ECF90121ADF8001069462046C1
:10130000FFF7E5F90221ADF8001069462046FFF726
:10131000DEF920212046FFF744FA01212046FFF79D
:1013200040FA02212046FFF73CFA38BD000C01408C
:1013300001214020FFF7AABB70B55E4D0446002195
:101340002846FFF7ACF8A1B22846FFF7BBF8012109
:101350002846FFF7A4F8BDE87040012280215648D6
:10136000FFF7B1BC70B50C460100544812D0022200
:101370000270220A4270847005461CB12246E81CA5
:1013800000F018F928190321C170201DFFF7D4FFC0
:10139000002070BD4AA000F059F94CA000F056F9A9
:1013A00049224EA155A000F051F94FF0FF3070BD19
:1013B00070B5404C002114342046FFF770F82046E9
:1013C000FFF782F8514DC0F57A7451A02C6000F0FF
:1013D0003DF9214652A000F039F94FF40030FFF7F3
:1013E00084F834494FF47A704439C865286840F06D
:1013F0000040286070BD2DE9F0410D464D490600C2
:101400004FF0FF3810D07DB1404A1068002817DA3D
:10141000002784B21760042C15D229A000F016F919
:1014200045A000F013F90BE025A000F00FF947A04C
:1014300000F00CF940F2211228A130A000F006F9CA
:101440004046BDE8F081B1F8010042BA201F80B2E9
:101450006A8082421CD13046C91C00F0ABF821469C
:10146000344800F0C0F82AA000F0F0F869883DA0E8
:1014700000F0ECF826A000F0E9F831463EA000F0BC
:10148000E5F823A000F0E2F83EA000F0DFF80AE063
:101490000BA000F0DBF840A000F0D8F8214625486A
:1014A00000F0A1F86F80034801211430FEF7F7FF28
:1014B0000020C6E744000240003801401C04002020
:1014C0000A5B4552525D203E3E200000646174611B
:1014D000204973204E756C6C200A00002E2E5C2E65
:1014E0002E5C557365725C6273705C646174615CE0
:1014F000646174615F7061636B2E63000A45727290
:101500006F723A25732C25640D0A00002C00002010
:101510000A5B44454255475D203E3E2000000000E6
:10152000627566665F6C656E677468203D20256431
:101530000A20000034000020646174617061636BF4
:10154000206973206D61722100000000627566667B
:10155000206F72206C656E206973204E554C4C0ACA
:1015600000000000646174615F6C656E67746820E0
:101570003D2025640000000064617461203D202549
:1015800073000000646174612068616E646C6520A2
:101590006F6BA3A10000000064617461206C656E34
:1015A000677468206973206E6F7420657175616C53
:1015B0002100000040EA01039B0703D009E008C9AD
:1015C000121F08C0042AFAD203E011F8013B00F808
:1015D000013B521EF9D27047D2B201E000F8012B54
:1015E000491EFBD270470022F6E710B513460A46A3
:1015F00004461946FFF7F0FF204610BD30B50B46F4
:10160000014600202022012409E021FA02F59D4232
:1016100005D303FA02F5491B04FA02F52844151E06
:10162000A2F10102F1DC30BD064C074D06E0E06896
:1016300040F0010394E8070098471034AC42F6D319
:10164000FEF77AFD44180008641800080FB4054B33
:1016500010B503A9044A029800F018F810BC5DF810
:1016600014FB0000631200083000002002E008C8EC
:10167000121F08C1002AFAD170477047002001E00C
:1016800001C1121F002AFBD1704700002DE9FF4F56
:101690008BB09A460F460546002606E025280BD05B
:1016A00052460D9990476D1C761C28780028F5D17C
:1016B0000FB03046BDE8F08F0024A04601226049FB
:1016C00000E0044315F8013F203B02FA03F0084212
:1016D000F7D128782E2817D115F8010F44F004040B
:1016E0002A280ED06FF02F022878A0F130010929A6
:1016F0000AD808EB880102EB410100EB01086D1CE0
:10170000F2E757F8048B6D1C287869283ED006DC78
:101710000028CDD063280BD0642804D136E073288C
:1017200010D075284BD052460D999047761C85E015
:1017300017F8040B8DF8000000208DF80100E94631
:10174000012003E057F8049B4FF0FF3061074FF092
:10175000000401D40AE0641C44450DDA8442FADB3B
:1017600019F804100029F6D106E0641C8442FCDB61
:1017700019F804100029F8D1264404E019F8010BE7
:1017800052460D999047641EF8D257E001CF4FF0B2
:101790000A0B002802DA40422D2102E0210504D57F
:1017A0002B218DF82410012103E0E10705D0202131
:1017B000F7E70DF1200908910CE00021F9E701CFCE
:1017C0004FF00A0BF9E75946FFF718FF01F1300215
:1017D00009F8012D0028F6D1ADEB090000F1200B2E
:1017E000600701D44FF00108D84502DDA8EB0B00DB
:1017F00000E000208046002406E009A85246005D73
:101800000D999047641C761C08988442F5DB04E02F
:10181000302052460D999047761CB8F10001A8F18E
:101820000108F5DC05E019F8010B52460D999047C7
:10183000761CBBF10001ABF1010BF4DC6D1C34E74D
:10184000092801006418000800000020340000008E
:101850006C1600089818000834000020D40B000013
:101860007C16000800A24A040000000000000000EE
:10187000010203040607080902040608000000002C
:101880000102030401020304060708090000000026
:08189000000000000000000050
:0400000508000131BD
:00000001FF
