:020000040800F2
:100000004004002045010008E90D0008EB0D000840
:10001000ED0D0008EF0D0008F10D000800000000D4
:10002000000000000000000000000000F30D0008C8
:10003000F50D000800000000F70D0008C30F0008D0
:100040005F0100085F0100085F0100085F01000810
:100050005F0100085F0100089F0E00085F010008B3
:100060005F0100085F0100085F0100085F010008F0
:100070005F0100085F0100085F0100085F010008E0
:100080005F0100085F0100085F0100085F010008D0
:100090005F0100085F0100085F0100085F010008C0
:1000A0005F0100085F0100085F0100085F010008B0
:1000B0005F0100085F0100085F0100085F010008A0
:1000C0005F0100085F0100085F0100085F01000890
:1000D0005F010008631100085F0100085F0100086C
:1000E000C10E00085F0100085F0100085F01000801
:1000F0005F0100085F0100085F0100085F01000860
:100100005F0100085F0100085F0100085F0100084F
:100110005F0100085F0100085F0100085F0100083F
:100120005F0100085F0100085F0100085F0100082F
:10013000DFF80CD001F0AAF800480047BF0D000816
:10014000400400200648804706480047FEE7FEE7D7
:10015000FEE7FEE7FEE7FEE7FEE7FEE7FEE7FEE777
:1001600011020008310100080CB500220192009232
:100170005248016841F4803101604FF4A063016886
:1001800001F4003100910199491C0191009911B9C4
:1001900001999942F3D10168890302D501210091A7
:1001A00000E000920099012930D145490A6842F0E7
:1001B00010020A600A6822F003020A600A6842F02C
:1001C00002020A604168416041684160416841F44F
:1001D00080614160416821F47C114160416841F4D3
:1001E000E8114160016841F0807101600168890196
:1001F000FCD5416821F003014160416841F00201F2
:1002000041604168C1F381010229FAD10CBDABE71D
:1002100010B52A48016841F0010101604168294A8E
:10022000114041600168284A11400160016821F4D1
:1002300080210160416821F4FE0141604FF41F01FB
:100240008160FFF7E4FF21494FF00060086010BDB6
:1002500010B51A4A506800F00C011D4B1D480029CA
:100260000ED004290ED008290ED003605168194A17
:10027000C1F30311121D515C0268CA40026010BD37
:100280000360F3E70360F1E7516801F4701153680C
:1002900003F48033022404EB914133B153689B0390
:1002A00007D50D4B59430160E0E70B4B5943016003
:1002B000DCE7074B59430160D8E70000001002401B
:1002C000002002400000FFF8FFFFF6FE08ED00E00E
:1002D00000127A000000002000093D002A4908436E
:1002E0002A490860704770B50F23C278012601784B
:1002F000002A1ED0254A126802F4E062C2F5E062CC
:10030000120AC2F10404D3404578A54082781A400D
:100310002A43120101F1E02181F80024007800F065
:100320001F018E404009800000F1E020C0F800610C
:1003300070BD01F01F0086404809800000F1E020F8
:10034000C0F8806170BD124A114001430F48001F80
:10035000016070470D4A121D002903D01168014346
:100360001160704711688143116070474FF0E021C0
:10037000042804D0086920F0040008617047086967
:1003800040F00400086170470000FA050CED00E041
:1003900080FFFF1F384900200860091D0860091D03
:1003A0000860091D086034493448143108607047FA
:1003B00030B5314A83790168002B2AD013688B430A
:1003C0001360111D0B680468A3430B60017911448D
:1003D0000B68046823430B60274C083421680368CA
:1003E00099432160231D19680568A9431960417963
:1003F000102905D011440A68006802430A6030BD24
:10040000216802681143216019680068014319607E
:1004100030BD0079104402688A43026030BD00217B
:10042000016001710C2242718171704712491031D3
:100430000A6802430A607047014600200E4A1432DF
:1004400012680A4200D0012070470B49143108603D
:10045000704701460020084A12680A40064B1433D0
:100460001B680B4202D0002A00D0012070470249CD
:10047000143108607047000000040140FFFF0F00C6
:1004800010B59C49884209D10121042000F07DFA71
:100490000021BDE81040042000F077BA9649884258
:1004A00009D10121082000F070FA0021BDE81040B8
:1004B000082000F06ABA9149884209D10121102030
:1004C00000F063FA0021BDE81040102000F05DBA92
:1004D0008B49884209D10121202000F056FA0021E1
:1004E000BDE81040202000F050BA8649884209D16A
:1004F0000121402000F049FA0021BDE810404020D1
:1005000000F043BA8049884209D10121802000F0DF
:100510003CFA0021BDE81040802000F036BA7B494B
:1005200088420AD184150121204600F02EFA204687
:10053000BDE81040002100F028BA10BD10B501211F
:10054000084600F022FA0021BDE81040012000F02A
:100550001CBA2DE9F0410022CC7804F00F03E40628
:1005600001D58C7823430C784FF00F0714F0FF0F60
:100570004FF0010C1CD005680CFA02F40E882640DE
:10058000A64211D1960007FA06F825EA080503FAF3
:1005900006F848EA0505CE78282E02D0482E02D06B
:1005A00002E0446100E00461521C082AE4D30560C3
:1005B0000A88FF2A1ED94568002202F108060CFAB3
:1005C00006F40E882640A64210D1960007FA06F8D7
:1005D00025EA080503FA06F848EA0505CE78282E2C
:1005E00000D14461CE78482E00D10461521C082A03
:1005F000E3D34560BDE8F0814FF6FF710180022131
:1006000081700421C17070470246002092680A423E
:1006100000D001207047806880B2704702460020F9
:10062000D2680A4200D001207047C06880B270478B
:100630000161704741617047002A01D00161704734
:1006400041617047C160704741F4803282618161CD
:10065000826181698069704710B52D4B1A684FF629
:100660008074224042EA00100843186010BD2949F6
:10067000C8617047F0B5264C002801DAE36900E054
:100680006368C0F30346420D120185B2C0F30157FF
:100690009540032F07D0C2020CD50322B2409343EA
:1006A00043F0706209E023F07062636823F07063C6
:1006B000636002E0AB4343F0706201B12A4300285B
:1006C00001DAE261F0BD6260F0BD10B58A07120F79
:1006D0000F23934021F003040D4921448C689C436F
:1006E0008C608B68904003438B6010BD0949DC31FE
:1006F0000860704700080140000C014000100140F4
:100700000014014000180140001C0140002001407D
:100710000000014000002042B448016841F001019E
:1007200001604168B24A114041600168B14A11401C
:100730000160016821F480210160416821F4FE011B
:1007400041604FF41F0181607047A8490A6822F494
:1007500080320A600A6822F480220A60B0F5803F85
:1007600007D0B0F5802F03D1086840F4A0200860BE
:100770007047086840F480300860704703460020E6
:1007800059099A4A01290AD002290AD0516A03F06C
:100790001F02012393400B4200D0012070471168D3
:1007A000F5E7116AF3E718B5002000904FF4A06454
:1007B0003120FFF7E3FF0099491C00910099A14205
:1007C00001D00028F4D03120FFF7D8FF08B1012074
:1007D00018BD002018BD854A116821F0F80141EAD2
:1007E000C000106070478449086070477F4B5A68AA
:1007F00022F47C1208431043586070477E49086613
:1008000070477A4A516821F00301014351607047F3
:100810007648406800F00C007047744A516821F037
:10082000F001014351607047704A516821F4E06162
:100830000143516070476D4A516821F4605141EAAB
:10084000C00050607047694A002903D0517A0143C3
:1008500051727047517A8143517270476649D8315D
:1008600008607047614A516821F44041014351607A
:1008700070475E49002220310A7001F820290128C2
:1008800005D0042802D1052081F8200070470120FE
:1008900081F82000704759490860704753490A6A37
:1008A00002430A627047554944390860704710B5E1
:1008B0004E4A516801F00C01514B002927D0042900
:1008C00027D0082927D00360516801F0F0010909F9
:1008D0004C4B5C5C0168E1404160546804F4E064A6
:1008E000240A1C5D21FA04F48460546804F4605402
:1008F000E40A1B5DD940C160526802F44042920B89
:10090000404B1B1F9A5CB1FBF2F1016110BD03600B
:10091000DAE70360D8E7516801F47011536803F413
:100920008033022404EB914133B153689B0307D514
:10093000354B59430160C7E7334B59430160C3E767
:100940002F4B59430160BFE7284A002903D0516962
:100950000143516170475169814351617047234A96
:10096000002903D0916901439161704791698143E6
:10097000916170471D4A002903D0D1690143D161BB
:100980007047D1698143D1617047184A002903D06B
:10099000D1680143D1607047D1688143D16070470D
:1009A000124A002903D0116901431161704711698E
:1009B00081431161704711494039086070470E4901
:1009C000C86470470949C87170470848416A41F0D6
:1009D00080714162704701460020044A92680A42D1
:1009E00000D0012070470149887270470010024012
:1009F0000000FFF8FFFFF6FE000042428004424282
:100A000000127A001800002000093D0010B5E149ED
:100A100088420AD101218C032046FFF7B6FF204609
:100A2000BDE810400021FFF7B0BFDB4988420AD182
:100A300001214C042046FFF7B3FF2046BDE81040DB
:100A40000021FFF7ADBFD54988420AD101218C04AE
:100A50002046FFF7A5FF2046BDE810400021FFF724
:100A60009FBFCF4988420AD10121CC042046FFF71D
:100A700097FF2046BDE810400021FFF791BFC9490C
:100A800088420AD101210C052046FFF789FF204644
:100A9000BDE810400021FFF783BF10BD30B585B021
:100AA00004460D46208A4CF6FF710840E988014350
:100AB0002182A0894EF6F3110840A9882A891143A2
:100AC0006A8902431143A181A08A4FF6FF41084081
:100AD000A9890143A1826846FFF7E9FEAD48844237
:100AE00001D1039800E00298A189090408D500EB20
:100AF000C00101EB001029684900B0FBF1F007E0EC
:100B000000EBC00101EB001029688900B0FBF1F097
:100B10006422B0FBF2F109010B096FF018056B4379
:100B200000EB8300A3891D044FF0320307D503EBCC
:100B3000C000B0FBF2F000F00700084306E003EB52
:100B40000010B0FBF2F000F00F000843208105B068
:100B500030BD4FF41651016000218180C1800181B8
:100B60000C2242818181704710B5038A4FF2FF0247
:100B700013400A884C8822438C88C9880C4322433E
:100B80001A43028210BD0021018041808180C18012
:100B90007047002904D0818941F400518181704758
:100BA000818921F400518181704710B540F66A13A4
:100BB000C1F3421301F01F040121A140012B07D012
:100BC000022B07D014303AB102680A43026010BD0C
:100BD0000C30F8E71030F6E702688A43026010BD77
:100BE000002A03D0828A0A4382827047828A8A431B
:100BF00082827047028A22F00F020282028A0A432E
:100C000002827047828922F40062828182890A43CB
:100C100082817047002904D0818941F002018181DD
:100C20007047818921F0020181817047028A22F098
:100C300020020282028A0A4302827047002904D0FD
:100C4000018A41F4804101827047018A21F4804188
:100C500001827047C1F30801818070478088C0F32A
:100C600008007047818941F0010181817047028B42
:100C7000D2B20283028B42EA012101837047028BC8
:100C800002F47F420283028B0A43028370470029E9
:100C900004D0818A41F0200181827047818A21F04D
:100CA000200181827047002904D0818A41F010011F
:100CB00081827047818A21F010018182704700296A
:100CC00004D0818A41F0080181827047818A21F035
:100CD000080181827047002904D0818941F40041D4
:100CE000818170478189C1F30E018181704700299C
:100CF00004D0818A41F4006181827047818A21F4A5
:100D0000006181827047828A22F004028282828A94
:100D10000A4382827047002904D0818A41F002018F
:100D200081827047818A21F00201818270470246E8
:100D3000002012880A4200D0012070478A05C9436A
:100D40000180704770B5002440F66A12C1F3421367
:100D500001F01F05012606FA05F2012B0CD0022B2B
:100D60000DD0838A1340090A8E40008830400BB1B1
:100D700000B10124204670BD83891340F3E7038A44
:100D80001340F0E740F66A120A0A01219140C94374
:100D90000180704700380140004400400048004096
:100DA000004C00400050004010B500F0F3F900F096
:100DB000B5F800F026F9BDE8104000F036B81CB5D3
:100DC000FFF7F2FF05A003C8CDE90001054C684616
:100DD00000F040FA204600F0ADF8F8E76162636485
:100DE0000000000020A107007047FEE7FEE7FEE7D5
:100DF000FEE770477047704708B54FF4C060FFF7D3
:100E00006DFA06208DF8000001208DF801008DF8A4
:100E100002008DF803006846FFF765FA28208DF878
:100E200000006846FFF75FFA08BDFEB50121052006
:100E3000FFF795FDFFF7E0FF0124ADF8084004251A
:100E40008DF80B5002A92848FFF783FB00210846C4
:100E5000FFF73BFC009400278DF8047008208DF804
:100E600005008DF806406846FFF7A2FA6603ADF864
:100E700008608DF80B5002A91C48FFF76AFB0D2192
:100E80000220FFF722FC00968DF804700C208DF8EC
:100E900005008DF806406846FFF78AFAFEBD10B5DA
:100EA0000120FFF7D6FA002809D01148016881F027
:100EB00020010160BDE810400120FFF7D8BA10BD45
:100EC00010B54FF400542046FFF7C3FA002809D0AC
:100ED0000748016881F0010101602046BDE810402B
:100EE000FFF7C5BA10BD0000000801400010014026
:100EF0000C0C0140B0F1807F01D30120704720F03D
:100F00007F414FF0E020491E41612E4AF0211170CF
:100F100000218161072101610020704710B52A4836
:100F20002A490068B0FBF1F0FFF7E4FF002800D089
:100F3000FEE710BD01B52648009901604FF0E021A1
:100F40000A6942F001020A6101680029FCD108BD6A
:100F50001F480168002902D00168491E01607047DE
:100F600001B519481B490068B0FBF1F0FFF7C2FF5B
:100F700000204FF0E02103E00A69D203FCD5401CB9
:100F8000009A9042F8D3086920F00100086108BD7A
:100F900001B50D484FF47A710068B0FBF1F0FFF72E
:100FA000A9FF00204FF0E02103E00A69D203FCD53D
:100FB000401C009A9042F8D3086920F001000861B3
:100FC00008BDC5E723ED00E000000020A086010079
:100FD0002800002040420F0008B54FF44070FFF792
:100FE0007DF925208DF8000006208DF801000020F5
:100FF0008DF8020001208DF803006846FFF773F9B1
:1010000008BD10B586B001210420FFF7A8FC01211E
:101010008803FFF7A4FC4FF40070ADF8140018200B
:101020008DF8170003208DF81600574C05A92046AF
:10103000FFF78FFA2115ADF8141004218DF8171061
:1010400005A92046FFF785FA4FF4E1300190002012
:10105000ADF80800ADF80A00ADF80C00ADF81000CE
:101060000C20ADF80E00494C01A92046FFF716FDF3
:10107000FFF7B2FF012240F225512046FFF795FD10
:1010800001212046FFF785FD06B010BD10B50446CE
:101090002046FFF7DFFD80212046FFF748FE0028AD
:1010A000F9D010BD2DE9F04107460D461646002443
:1010B00005E0295D3846FFF7E9FF641CE4B2B4425D
:1010C000F7D340213846FFF732FE0028F9D0BDE8BB
:1010D000F08170B506460D4600243046295DFFF7C5
:1010E000D5FF641C285D0028F7D140213046FFF76A
:1010F0001EFE0028F9D070BD70B50546080ACCB2B6
:1011000001462846FFF7A6FD80212846FFF70FFE7F
:101110000028F9D021462846FFF79CFD802128466B
:10112000FFF705FE0028F9D070BD70B50446174DD5
:10113000E1B22846FFF78EFD80212846FFF7F7FD34
:101140000028F9D0204670BD10B5104C2021204653
:10115000FFF7EDFD0028F9D02046BDE81040FFF76D
:101160007DBD10B5094C40F225512046FFF7EAFD40
:10117000002808D02046FFF771FDC1B2BDE810403D
:1011800003A000F095B810BD0008014000380140F0
:101190002563000038B501210820FFF7E0FB20207F
:1011A000ADF8000010208DF8030003208DF8020038
:1011B0000F4C69462046FFF7CCF90121ADF800102D
:1011C00069462046FFF7C5F90221ADF800106946CF
:1011D0002046FFF7BEF920212046FFF729FA01211A
:1011E0002046FFF725FA02212046FFF721FA38BDF5
:1011F000000C01402DE9F04105460E461E4C002032
:1012000060701E4F0DE0295C21703846FFF722FD0B
:1012100040213846FFF78BFD0128F9D16078401C4A
:1012200060706078B042EED3BDE8F0811249891D4C
:1012300008784A780004897840EA02200843704719
:101240000D49891C08784A780004897840EA022010
:10125000084370471FB56B46FFF7F2FF009032203E
:10126000019007A00290FFF7E1FF0390322118469A
:10127000FFF7C0FF1FBD00002C0000200038014018
:1012800066616B6C6661736400000000064C074D7C
:1012900006E0E06840F0010394E807009847103446
:1012A000AC42F6D3FEF748FFC4130008E41300086D
:1012B0000FB4054B10B503A9044A029800F017F8C3
:1012C00010BC5DF814FB00002B1100083800002052
:1012D00002E008C8121F08C1002AFAD170477047FF
:1012E000002001E001C1121F002AFBD170472DE947
:1012F000F84F9946924688460546002706E025287D
:101300000AD051464A4690476D1C7F1C2878002819
:10131000F5D13846BDE8F88F002315F8011F1846AF
:101320002E2915D115F8011F04232A290DD06FF09D
:101330002F022978A1F13004092C09D800EB800094
:1013400002EB400008446D1CF3E758F8040B6D1CD9
:101350002A78002ADDD0632A07D0732A0FD01046DE
:1013600051464A4690477F1C2AE018F8042B8DF816
:10137000002000218DF801106E46012103E058F88D
:10138000046B4FF0FF315A074FF0000401D409E01D
:10139000641C84420BDA8C42FADB325D002AF7D1FE
:1013A00005E0641C8C42FCDB305D0028F9D1274449
:1013B00004E016F8010B51464A469047641EF8D2E5
:1013C0006D1CA3E7E4130008000000203C000000AF
:1013D000D0120008201400083C0000200404000083
:1013E000E012000800A24A04000000000000000013
:1013F00001020304060708090204060800000000B1
:1014000001020304010203040607080900000000AA
:101410000000636169006A69650000000000000067
:0400000508000131BD
:00000001FF
