:020000040800F2
:10000000A80900204501000841100008431000081D
:1000100045100008471000084910000800000000C3
:100020000000000000000000000000004B1000086D
:100030004D100008000000004F1000085711000884
:100040005F0100085F0100085F0100085F01000810
:100050005F0100085F010008F11000085F0100085F
:100060005F0100085F0100085F0100085F010008F0
:100070005F0100085F0100085F0100085F010008E0
:100080005F0100085F0100085F0100085F010008D0
:100090005F0100085F0100085F0100085F010008C0
:1000A0005F0100085F0100085F0100085F010008B0
:1000B0005F0100085F0100085F0100085F010008A0
:1000C0005F0100085F0100085F0100085F01000890
:1000D0005F010008771300085F0100085F01000856
:1000E000131100085F0100085F0100085F010008AC
:1000F0005F0100085F0100085F0100085F01000860
:100100005F0100085F0100085F0100085F0100084F
:100110005F0100085F0100085F0100085F0100083F
:100120005F0100085F0100085F0100085F0100082F
:10013000DFF80CD001F0D0FC00480047E70E0008C3
:10014000A80900200648804706480047FEE7FEE76A
:10015000FEE7FEE7FEE7FEE7FEE7FEE7FEE7FEE777
:1001600009020008310100080CB500224C48009239
:100170000192016841F4803101604FF4A06301688D
:1001800001F4003101910099491C0091019911B9C4
:1001900000999942F3D10168890333D50121019176
:1001A00040490A6842F010020A600A6822F003021D
:1001B0000A600A6842F002020A60416841604168D0
:1001C0004160416841F480614160416821F47C11E3
:1001D0004160416841F4E8114160016841F080717B
:1001E000016001688901FCD5416821F0030141608B
:1001F000416841F0020141604168C1F38101022977
:10020000FAD10CBD01920CBD254810B5016841F032
:10021000010101604168244A114041600168234A9C
:1002200011400160016821F480210160416821F4DE
:10023000FE0141604FF41F018160FFF795FF1C49EB
:100240004FF00060086010BD154A10B55068194B9A
:1002500010F00C01184803D0042901D0082901D05E
:10026000036012E05168536801F470114FF002040A
:1002700013F4803F04EB914102D053689B0301D5F6
:100280000E4B00E00B4B5943016051680A4AC1F321
:100290000311121D515C0268CA40026010BD0000CB
:1002A00000100240002002400000FFF8FFFFF6FEB1
:1002B00008ED00E000127A000000002000093D0077
:1002C0002849084328490860704730B50F23C27891
:1002D00001780125F2B1244A126801F1E02102F40B
:1002E000E062C2F5E062120AC2F10404D34042782F
:1002F000A24084781C401443220181F80024007835
:1003000000F01F018D404009800000F1E020C0F89E
:10031000005130BD01F01F0085404809800000F108
:10032000E020C0F8805130BD104A114001430E4812
:10033000001F016070470C4A121D0029116801D08E
:10034000014300E08143116070474FF0E021042831
:10035000086903D020F004000861704740F00400F1
:10036000FAE700000000FA050CED00E080FFFF1F37
:1003700001684FF6FE72114001600021016041608A
:100380008160C1606A496A4A0839904203D148686D
:1003900040F00F0006E0664A1432904204D14868EB
:1003A00040F0F00048607047614A2832904203D123
:1003B000486840F47060F5E75D4A3C32904203D1F2
:1003C000486840F47040EDE7594A5032904203D1FA
:1003D000486840F47020E5E7554A6432904203D102
:1003E000486840F47000DDE7514A7832904203D10A
:1003F000486840F07060D5E74E4A111F904203D123
:10040000086840F00F0006E04A4A1432904204D1D6
:10041000086840F0F00008607047464A2832904271
:1004200003D1086840F47060F5E7424A3C329042DC
:1004300003D1086840F47040EDE73E4A50329042E4
:10044000EAD1086840F47020E5E730B5026847F665
:10045000F0739A430C6A8B682343D1E904452C431B
:1004600023438C692343CC6923434C6A23438C6A1E
:10047000234313430360CA6842600A688260496884
:10048000C16030BD0021016041608160C1600161D7
:1004900041618161C16101624162816270470029ED
:1004A000016802D041F0010102E04FF6FE721140F6
:1004B00001607047002A026801D00A4300E08A43C5
:1004C0000260704741607047406880B270470246E2
:1004D0000020D10002D51749083901E01449083934
:1004E0000968114200D001207047C10003D51149AD
:1004F000091F086070470E49083948607047024676
:100500000020D10002D50B49083901E0084908391B
:100510000968114200D001207047C10003D5054988
:10052000091F086070470249083948607047000099
:100530000800024008040240374900200860091DF5
:100540000860091D0860091D0860334933481431EB
:100550000860704730B5304A8379016853B3136837
:100560008B431360111D0B680468A3430B60017972
:1005700011440B68046823430B60274B0833196848
:100580000468A14319601C1D21680568A943216006
:100590004179102905D011440A68006802430A60B5
:1005A00030BD196802681143196021680068014371
:1005B000216030BD0079104402688A43026030BD7A
:1005C0000021016001710C22427181717047124952
:1005D00010310A6802430A60704701460E4A002043
:1005E000143212680A4200D0012070470A491431BF
:1005F00008607047084A014600201268064B0A400E
:1006000014331B680B4202D0002A00D0012070472F
:10061000014914310860704700040140FFFF0F00DA
:100620008F4910B5884206D10121042000F049FA13
:10063000002104203BE08B49884206D1012108209B
:1006400000F03FFA0021082031E08749884206D1B6
:100650000121102000F035FA0021102027E0834905
:10066000884206D10121202000F02BFA0021202011
:100670001DE07F49884206D10121402000F021FA87
:100680000021402013E07B49884206D101218020CF
:1006900000F017FA0021802009E0774988420AD14A
:1006A00084150121204600F00CFA00212046BDE807
:1006B000104000F006BA10BD10B50121084600F048
:1006C00000FA0021BDE81040012000F0FAB9F0B5B1
:1006D000CC78002204F00F03E40601D58C78234384
:1006E0000C784FF00F0C14F0FF0F4FF0010E1BD0E1
:1006F00005680E880EFA02F42640A64210D1960034
:100700000CFA06F725EA070703FA06F5CE783D430B
:10071000282E02D0482E02D002E0446100E004619D
:10072000521C082AE5D305600A88FF2A1CD94468B0
:10073000002202F108060EFA06F50E882E40AE429F
:100740000ED196000CFA06F7BC4303FA06F7CE78F2
:100750003C43282E00D14561CE78482E00D105615A
:10076000521C082AE5D34460F0BD4FF6FF710180AA
:10077000022181700421C1707047024600209268F6
:100780000A4200D001207047806880B2704702465C
:100790000020D2680A4200D001207047C06880B2B1
:1007A000704701617047416170470AB1016170474C
:1007B00041617047C160704741F48032826181615C
:1007C00082618169806970472C4B10B51A684FF6B9
:1007D0008074224042EA00100843186010BD284986
:1007E000C8617047F0B5254C002801DAE36900E0E4
:1007F0006368450D2E0185B2C0F30157B540C0F3C3
:100800000342032F05D0C6020AD503269640B34300
:1008100007E023F07062636823F07063636002E0B6
:10082000AB4343F0706201B12A43002801DAE26170
:10083000F0BD6260F0BD10B58A0721F003040F49D6
:10084000120F21440F238C6893409C438C608B686B
:10085000904003438B6010BD0949C1F8DC0070472C
:1008600000080140000C014000100140001401404C
:1008700000180140001C0140002001400000014020
:1008800000002042A548016841F001010160416873
:10089000A34A114041600168A24A11400160016809
:1008A00021F480210160416821F4FE0141604FF490
:1008B0001F018160704799490A6822F480320A60FA
:1008C0000A6822F480220A60B0F5803F07D0B0F5B4
:1008D000802F03D1086840F4A020086070470868A2
:1008E00040F48030F9E70346002059098B4A01297A
:1008F0000AD002290AD0516A03F01F020123934053
:100900000B4200D0012070471168F5E7116AF3E748
:1009100018B500204FF4A06400903120FFF7E3FFEA
:100920000099491C0091A14201D00028F5D0312046
:10093000FFF7D9FF002800D0012018BD774A1168C1
:1009400021F0F80141EAC000106070477649086064
:100950007047724B5A68084322F47C121043586067
:1009600070477149086670476C4A516821F003016D
:100970000143516070476948406800F00C007047BF
:10098000664A516821F0F001014351607047634AA3
:10099000516821F4E0610143516070475F4A51683A
:1009A00021F4605141EAC000506070475B4A002961
:1009B000517A01D0014300E08143517270475A4996
:1009C000C1F8D8007047554A516821F440410143AD
:1009D000516070475149002281F8202081F8202081
:1009E000012802D0042802D1052081F82000704798
:1009F0004E490860704749490A6A02430A627047D3
:100A00004A4944390860704730B5444A5168484BF8
:100A100011F00C0103D0042901D0082901D0036092
:100A200012E05168536801F470114FF0020413F49E
:100A3000803F04EB914102D053689B0301D53D4BAD
:100A400000E03B4B5943016051680F2303EA111149
:100A5000394B5C5C0168E14041605468072505EA58
:100A600014241C5D21FA04F48460546805EAD4243B
:100A70001B5DD940C1605268032303EA92322E4BBA
:100A80001B1F9A5CB1FBF2F1016130BD234A0029C2
:100A9000516901D0014300E08143516170471F4A11
:100AA0000029916901D0014300E0814391617047C1
:100AB0001A4A0029D16901D0014300E08143D16184
:100AC0007047164A0029D16801D0014300E08143F4
:100AD000D1607047114A0029116901D0014300E03B
:100AE00081431161704711494039086070470E49D0
:100AF000C86470470949C87170470848416A41F0A5
:100B0000807141627047054A0146002092680A429E
:100B100000D00120704701498872704700100240E0
:100B20000000FFF8FFFFF6FE000042428004424250
:100B300000127A0000093D0018000020C44910B5D9
:100B400088420AD101218C032046FFF7BAFF2046D4
:100B5000BDE810400021FFF7B4BFBE49884202D172
:100B600001214C0410E0BC49884202D101218C04CF
:100B70000AE0BA49884202D10121CC0404E0B84914
:100B800088420AD101210C052046FFF7A3FF204629
:100B9000BDE810400021FFF79DBF10BD30B50446F1
:100BA000008A85B00D464CF6FF710840E988014384
:100BB0002182A0894EF6F3110840A9882A891143A1
:100BC0006A8902431143A181A08A4FF6FF41084080
:100BD000A9890143A1826846FFF716FF9C48844219
:100BE00001D1039800E00298A189090400EBC0013B
:100BF00001EB0010296801D5490000E08900B0FB35
:100C0000F1F06422B0FBF2F109010B096FF0180555
:100C10006B4300EB8300A3891D044FF0320306D51C
:100C200003EBC000B0FBF2F000F0070005E003EBBF
:100C30000010B0FBF2F000F00F000843208105B077
:100C400030BD4FF41651016000218180C1800181C7
:100C50000C2242818181704710B5028A4FF2FF0356
:100C60001A400B884C8823438C88C9880C43234343
:100C70001343038210BD0021018041808180C18027
:100C800070470029818902D041F4005101E021F42C
:100C900000518181704710B5C1F3421301F01F0468
:100CA0000121A140012B07D0022B07D01430002ACC
:100CB000026805D00A4304E00C30F8E71030F6E78C
:100CC0008A43026010BD002A828A01D00A4300E0F4
:100CD0008A4382827047028A22F00F020282028ACD
:100CE0000A4302827047828922F4006282818289EB
:100CF0000A43828170470029818902D041F00201B4
:100D000001E021F0020181817047028A22F0200275
:100D10000282028A0A43028270470029018A02D0B5
:100D200041F4804101E021F4804101827047C1F328
:100D30000801818070478088C0F30800704781896E
:100D400041F0010181817047028BD2B20283028B94
:100D500042EA012101837047028B02F47F42028341
:100D6000028B0A43028370470029818A02D041F036
:100D7000200101E021F02001818270470029818A51
:100D800002D041F0100101E021F010018182704792
:100D90000029818A02D041F0080101E021F0080118
:100DA000818270470029818902D041F4004101E02D
:100DB000C1F30E01818170470029818A02D041F47C
:100DC000006101E021F4006181827047828A22F093
:100DD00004028282828A0A43828270470029818AC1
:100DE00002D041F0020101E021F00201818270474E
:100DF0000246002012880A4200D001207047C943F1
:100E00000180704770B501F01F0501260024C1F371
:100E1000421306FA05F2012B0FD0022B0FD0838A62
:100E20004FEA11210088134206FA01F600EA060093
:100E300001D000B10124204670BD8389F0E7038A08
:100E4000EEE70A0A01219140C94301807047000082
:100E5000003801400044004000480040004C004081
:100E60000050004010B546A000F048FEBDE810401C
:100E700046A000F043BE10B541A000F03FFEBDE823
:100E8000104046A000F03ABE10B53DA000F036FE7E
:100E900046A000F033FE494800F0BDFC38A000F049
:100EA0002DFE47A000F02AFEBDE8104000F034BC43
:100EB00010B533A000F022FEBDE8104043A000F0C2
:100EC0001DBE10B52EA000F019FEBDE8104043A0D5
:100ED00000F014BE10B52AA000F010FEBDE81040CE
:100EE00042A000F00BBE00F05FFA00F0E9FB00F05A
:100EF00035F900F07FFD00F087FA40A000F0FEFD1C
:100F000041A000F0FBFD2D490123494A44392DA0A1
:100F100000F011FCAFF2B30228480021443800F081
:100F20005BFCAFF2AD0225480221443800F054FCCE
:100F3000AFF2AB0221480321443800F04DFC0123FD
:100F40003C4A1E493CA000F0F6FBAFF29B02002198
:100F50001A4800F041FCAFF295020221174800F058
:100F60003BFCAFF28F020321144800F035FC44F63D
:100F7000206400F0F0FC204600F0B2FBF9E700002E
:100F80000A5B494E464F5D203E3E20004275747418
:100F90006F6E3120B5A5BBF7210000004275747457
:100FA0006F6E3120CBABBBF721000000427574742B
:100FB0006F6E3120B3A4B0B4210000007C0000208B
:100FC000C9BEB3FD427574746F6E3100427574749E
:100FD0006F6E3220B5A5BBF7210000004275747416
:100FE0006F6E3220CBABBBF72100000042757474EA
:100FF0006F6E3220B3A4B0B4210000000A5B494EEA
:10100000464F5D203E3E200077656C636F6D652026
:10101000746F206C6561726E206A69656A6965200B
:1010200073746D3332206C696272617279210A00C7
:10103000491A0008511A0008427574746F6E320024
:101040007047FEE7FEE7FEE7FEE770477047704730
:101050002DE9FF4101210520FFF721FD4FF4C0607C
:10106000FFF72EF906208DF8080001248DF80940BD
:101070008DF80A408DF80B4002A8FFF726F92820CA
:101080008DF8080002A8FFF720F9ADF80C400426FF
:101090008DF80F6003A92848FFF719FB00210846C7
:1010A000FFF7C9FB00278DF8047008208DF80500B4
:1010B00000948DF806406846FFF74CFA6503ADF8DA
:1010C0000C508DF80F6003A91C48FFF700FB0D21A1
:1010D0000220FFF7B0FB8DF804700C208DF805009E
:1010E00000958DF806406846FFF734FABDE8FF81A9
:1010F00010B50120FFF77EFA002809D010480168DA
:1011000081F020010160BDE810400120FFF780BAA6
:1011100010BD10B54FF400542046FFF76BFA0028BD
:1011200009D00748016881F0010101602046BDE84F
:101130001040FFF76DBA10BD0008014000100140DB
:101140000C0C0140704704480168002902D0016876
:10115000491E016070477047280000202DE9F041CA
:1011600090B001210420FFF79AFC01218803FFF7CA
:1011700096FC4FF40070ADF83C0018208DF83F004D
:101180000320854C8DF83E000FA92046FFF79FFAFB
:101190002115ADF83C1004218DF83F100FA9204611
:1011A000FFF795FA00244FF4E1300B90ADF834408E
:1011B0000C20DFF8E881ADF83040ADF83600ADF82E
:1011C0003240ADF838400BA94046FFF7E7FC4FF43A
:1011D0004070FFF775F825208DF8000006208DF887
:1011E00001008DF8024001208DF803006846FFF7EA
:1011F0006CF8012240F224414046FFF74CFD0122E9
:1012000040214046FFF75FFD01210846FFF73EFC05
:1012100008F1040662480096CDE9010403A9FF2005
:10122000802581E8310020200694CDE907404FF465
:101230004050CDE909045B4F69463846FFF705F990
:10124000A802FFF752F9012208213846FFF732F9C8
:1012500001213846FFF723F901210846FFF716FC64
:101260004F4803A9FF30CDE90060102002904FF4F1
:101270007A7081E831006801CDE90840069407944E
:101280000A94484C6946143C2046FFF7DEF80121D9
:101290002046FFF704F901214046FFF7F2FC10B0A9
:1012A000BDE8F08110B50446FFF741FD80212046DE
:1012B000FFF79EFD0028F9D010BD2DE9F04115463D
:1012C0000E460746002405E0315D3846FFF7EAFF89
:1012D000641CE4B2AC42F7D340213846FFF788FDE6
:1012E0000028F9D0DCE770B50D46064600243046EC
:1012F000295DFFF7D7FF641C285D0028F7D1402146
:101300003046FFF775FD0028F9D070BD70B5044672
:10131000080ACDB201462046FFF709FD802120468C
:10132000FFF766FD0028F9D029462046FFF7FFFCAD
:1013300080212046FFF75CFD0028F9D070BD70B514
:10134000164D0446C1B22846FFF7F1FC802128461D
:10135000FFF74EFD0028F9D0204670BD10B50F4CA8
:1013600020212046FFF744FD0028F9D02046BDE8A3
:101370001040FFF7E0BC10B5084C40F22441204675
:10138000FFF740FD002806D000F080F82046BDE8B9
:101390001040FFF7D0BC10BD0008014000380140EC
:1013A000C00000205800024038B501210820FFF796
:1013B00076FB2020ADF8000010208DF803000320FC
:1013C000104C8DF8020069462046FFF780F9012194
:1013D000ADF8001069462046FFF779F90221ADF813
:1013E000001069462046FFF772F920212046FFF7DA
:1013F000D8F901212046FFF7D4F902212046FFF752
:10140000D0F938BD000C014001214020FFF73EBB60
:1014100070B5514C054600212046FFF740F829469B
:101420002046FFF74FF801212046FFF738F8BDE8C6
:101430007040012280214948FFF745BC70B5484CF7
:101440000D46A8B1022104F8011B04F8015B25B187
:1014500001462A46204600F005FB6019032100F8EA
:10146000011B3F49401A80B2FFF7D2FF002070BD38
:101470003CA000F043FB3EA000F040FB4E2240A108
:1014800047A000F03BFB4FF0FF3070BD70B5324D10
:10149000002114352846FFF702F82846FFF714F814
:1014A000434CC0F1FF014FF400302180FFF71DF8DD
:1014B0002949FF204439C86501212846FEF7EFFF7E
:1014C000208840F44040208070BD70B50D463949F9
:1014D0006FF0010680B17DB1354A1488230417D519
:1014E00000261680042C15D21EA000F007FB32A0A7
:1014F00000F004FBF01E70BD1AA000F0FFFA33A04C
:1015000000F0FCFA4FF499721DA125A000F0F6FA44
:10151000304670BDB1F80120231F52BA9BB26A80D9
:101520009A4207D1C91C00F09DFA2146214800F0DB
:10153000B2FA0AE00BA000F0E1FA2AA000F0DEFA0D
:1015400021461C4800F0A7FA6E80034801211430A0
:10155000FEF7A5FF002070BD4400024000380140A6
:10156000BF0100200A5B4552525D203E3E20000034
:1015700064617461204973204E756C6C200A000010
:101580002E2E5C2E2E5C557365725C636F6D6D6FD5
:101590006E5C646174615F7061636B2E6300000058
:1015A0000A4572726F723A25732C25640D0A000089
:1015B0002C000020C0000020646174617061636BC6
:1015C000206973206D6172210000000062756666FB
:1015D000206F72206C656E206973204E554C4C0A4A
:1015E0000000000064617461206C656E677468209F
:1015F0006973206E6F7420657175616C2100000045
:1016000010B50178202912D0092910D00A290ED04E
:101610000C290CD008290AD00D2908D0C9B2401CC9
:1016200002460B462D2904D02B2902D003E0401C92
:10163000E7E71178421C0020A1F13004092C07D8FB
:1016400000EB800001EB400012F8011B3038F3E79B
:101650002D2B00D1404210BD7CB5061E00DA704231
:1016600000220A236C4690FBF3F503FB150590FB63
:10167000F3F03035A554521C0028F4DC002E02DAB9
:101680002D20A054521C0020A05402E0A05C01F8C0
:10169000010B521EFAD57CBD10B5002A07D00346B7
:1016A00011F8014B03F8014B2CB1521EF8D110BDBB
:1016B00003F8011B00E00021521EF9D110BD00000B
:1016C0001348016841F080710160124800214160B7
:1016D000016841F00101016070470E4840687047A1
:1016E00011B50C4C0099002001EBC1016268CB00E0
:1016F00061689142FCD002D9A1EB020202E06FEADC
:1017000002020A4410440A469842F1D318BD000070
:10171000FCED00E0001000E010B59548046807E01B
:1017200094A000F0EBF9211D95A000F0E7F9246CDE
:10173000002CF5D110BD2DE9FC411E4615460C00CC
:1017400007460AD193A000F0D9F995A000F0D6F988
:10175000312299A19FA000F0D1F94421204600F048
:101760009AF920223946201DFFF796FF14F8240F1E
:10177000062120F03800303020F007006170801D15
:1017800044F8245C66F386102070A8472178784AD4
:1017900060F3C71104F81A1B002004F83E09106812
:1017A000014600E0006C0028FCD121648DA014608B
:1017B00000F0A4F994F82400C209C0F38011CDE927
:1017C000001200F00703C0F3C202211D884800F098
:1017D00095F9BDE8FC419FE770B515460E4604003B
:1017E0000AD16CA000F08AF96DA000F087F95922A7
:1017F00071A178A000F082F9042E03D004EB8600DA
:10180000856270BD002104EB8100491CC9B285626C
:101810000429F8D370BD564A06E0814202D1096C12
:10182000116001E001F1400211680029F5D1704713
:1018300090F8240000F00700704790F82400C0F3EF
:10184000C200704770B5044600688047014694F8AE
:1018500024000025B1EBD01F1DD094F83E20521C6F
:10186000D2B284F83E20022A15D361F3C71084F85F
:101870002400C0F3C20184F83E50062903D010F0C2
:10188000380F03D007E020F0380002E020F03800E5
:10189000083084F82400C0B2C0F3C20141B101296C
:1018A00021D0062903D114F83D0F401C207070BDD3
:1018B000C0F38011B1EBD01F11D120F0070084F8E4
:1018C000240094F83F10491CC9B284F83F10322913
:1018D000EDD320F00700C01C84F8240070BD20F078
:1018E00038000830F8E7410712D000F0070003285D
:1018F000F4D1616B09B12046884784F83F5014F851
:10190000240F20F03800303020700320607070BD4C
:1019100094F83D000F2802D894F8250078B184F897
:101920003D5084F83F50A16A09B12046884714F819
:10193000240F20F0380030302070657070BD216BAE
:1019400009B12046884714F8240F20F038003030C1
:1019500020700620DAE7064810B5046803E0204648
:10196000FFF770FF246C002CF9D110BD7047000008
:10197000300000200A5B494E464F5D203E3E20006D
:10198000627574746F6E206E6F6465206861766531
:10199000202573000A5B4552525D203E3E20000028
:1019A00073747275637420627574746F6E206973DA
:1019B000206E756C6C2100002E2E5C2E2E5C5573F3
:1019C00065725C636F6D6D6F6E5C627574746F6E63
:1019D0002E6300000A4572726F723A25732C2564DB
:1019E0000D0A00000A5B494E464F5D203E3E200036
:1019F000F41C000838B501211420FFF750F801202D
:101A0000ADF8000004248DF8034069461348FEF742
:101A10005EFEE002ADF800008DF803406946104814
:101A2000FEF755FE38BD70B50C460546FEF7A5FE1F
:101A3000012801D0002070BD21462846FEF79DFEFA
:101A40000128F9D0012070BD01210448FEF795BEA0
:101A50004FF400510248FEF790BE0000000801401C
:101A60000010014040EA01039B0703D009E008C9C8
:101A7000121F08C0042AFAD203E011F8013B00F853
:101A8000013B521EF9D27047D2B201E000F8012B9F
:101A9000491EFBD270470022F6E710B513460A46EE
:101AA00004461946FFF7F0FF204610BD30B50B463F
:101AB000014600202022012409E021FA02F59D427E
:101AC00005D303FA02F5491B04FA02F52844151E52
:101AD000A2F10102F1DC30BD064C074D06E0E068E2
:101AE00040F0010394E8070098471034AC42F6D365
:101AF000FEF722FBE01D0008001E00080FB4054B96
:101B000010B503A9044A029800F018F810BC5DF85B
:101B100014FB00003F1300083400002002E008C856
:101B2000121F08C1002AFAD170477047002001E057
:101B300001C1121F002AFBD1704700002DE9FF4FA1
:101B40008BB09A460F460546002606E025280BD0A6
:101B500052460D9990476D1C761C28780028F5D1C7
:101B60000FB03046BDE8F08F0024A0460122604946
:101B700000E0044315F8013F203B02FA03F008425D
:101B8000F7D128782E2817D115F8010F44F0040456
:101B90002A280ED06FF02F022878A0F130010929F1
:101BA0000AD808EB880102EB410100EB01086D1C2B
:101BB000F2E757F8048B6D1C287869283ED006DCC4
:101BC0000028CDD063280BD0642804D136E07328D8
:101BD00010D075284BD052460D999047761C85E061
:101BE00017F8040B8DF8000000208DF80100E9467D
:101BF000012003E057F8049B4FF0FF3061074FF0DE
:101C0000000401D40AE0641C44450DDA8442FADB86
:101C100019F804100029F6D106E0641C8442FCDBAC
:101C200019F804100029F8D1264404E019F8010B32
:101C300052460D999047641EF8D257E001CF4FF0FD
:101C40000A0B002802DA40422D2102E0210504D5CA
:101C50002B218DF82410012103E0E10705D020217C
:101C6000F7E70DF1200908910CE00021F9E701CF19
:101C70004FF00A0BF9E75946FFF718FF01F1300260
:101C800009F8012D0028F6D1ADEB090000F1200B79
:101C9000600701D44FF00108D84502DDA8EB0B0026
:101CA00000E000208046002406E009A85246005DBE
:101CB0000D999047641C761C08988442F5DB04E07B
:101CC000302052460D999047761CB8F10001A8F1DA
:101CD0000108F5DC05E019F8010B52460D99904713
:101CE000761CBBF10001ABF1010BF4DC6D1C34E799
:101CF00009280100627574746F6E207374727563C5
:101D00007420696E666F726D6174696F6E3A0A2035
:101D10002020202020202020202020202062746EDF
:101D20002D3E4E616D653A2573200A20202020202B
:101D300020202020202020202062746E2D3E42751D
:101D400074746F6E5F53746174653A2564200A2061
:101D50002020202020202020202020202062746E9F
:101D60002D3E427574746F6E5F5472696767657259
:101D70005F4576656E743A2564200A202020202075
:101D800020202020202020202062746E2D3E4275CD
:101D900074746F6E5F547269676765725F4C6576C5
:101DA000656C3A2564200A20202020202020202055
:101DB000202020202062746E2D3E427574746F6E58
:101DC0005F4C6173745F4C6576656C3A2564200ADC
:101DD0002020202020202020202020202020000043
:101DE000001E000800000020380000001C1B000836
:101DF000381E000838000020700900002C1B000865
:101E000000A24A04000000000000000001020304D8
:101E10000607080902040608000000000102030486
:101E2000010203040607080900000000000000008A
:081E30000000000000000000AA
:0400000508000131BD
:00000001FF
