:020000040800F2
:10000000C009002045010008F9100008FB10000895
:10001000FD100008FF10000801110008000000009A
:1000200000000000000000000000000003110008B4
:100030000511000800000000071100080F12000859
:100040005F0100085F0100085F0100085F01000810
:100050005F0100085F010008A91100085F010008A6
:100060005F0100085F0100085F0100085F010008F0
:100070005F0100085F0100085F0100085F010008E0
:100080005F0100085F0100085F0100085F010008D0
:100090005F0100085F0100085F0100085F010008C0
:1000A0005F0100085F0100085F0100085F010008B0
:1000B0005F0100085F0100085F0100085F010008A0
:1000C0005F0100085F0100085F0100085F01000890
:1000D0005F0100084D1400085F0100085F0100087F
:1000E000CB1100085F0100085F0100085F010008F4
:1000F0005F0100085F0100085F0100085F01000860
:100100005F0100085F0100085F0100085F0100084F
:100110005F0100085F0100085F0100085F0100083F
:100120005F0100085F0100085F0100085F0100082F
:10013000DFF80CD001F0ECFF00480047190F000871
:10014000C00900200648804706480047FEE7FEE752
:10015000FEE7FEE7FEE7FEE7FEE7FEE7FEE7FEE777
:1001600009020008310100080CB500224C48009239
:100170000192016841F4803101604FF4A06301688D
:1001800001F4003101910099491C0091019911B9C4
:1001900000999942F3D10168890333D50121019176
:1001A00040490A6842F010020A600A6822F003021D
:1001B0000A600A6842F002020A60416841604168D0
:1001C0004160416841F480614160416821F47C11E3
:1001D0004160416841F4E8114160016841F080717B
:1001E000016001688901FCD5416821F0030141608B
:1001F000416841F0020141604168C1F38101022977
:10020000FAD10CBD01920CBD254810B5016841F032
:10021000010101604168244A114041600168234A9C
:1002200011400160016821F480210160416821F4DE
:10023000FE0141604FF41F018160FFF795FF1C49EB
:100240004FF00060086010BD154A10B55068194B9A
:1002500010F00C01184803D0042901D0082901D05E
:10026000036012E05168536801F470114FF002040A
:1002700013F4803F04EB914102D053689B0301D5F6
:100280000E4B00E00B4B5943016051680A4AC1F321
:100290000311121D515C0268CA40026010BD0000CB
:1002A00000100240002002400000FFF8FFFFF6FEB1
:1002B00008ED00E000127A000000002000093D0077
:1002C0002849084328490860704730B50F23C27891
:1002D00001780125F2B1244A126801F1E02102F40B
:1002E000E062C2F5E062120AC2F10404D34042782F
:1002F000A24084781C401443220181F80024007835
:1003000000F01F018D404009800000F1E020C0F89E
:10031000005130BD01F01F0085404809800000F108
:10032000E020C0F8805130BD104A114001430E4812
:10033000001F016070470C4A121D0029116801D08E
:10034000014300E08143116070474FF0E021042831
:10035000086903D020F004000861704740F00400F1
:10036000FAE700000000FA050CED00E080FFFF1F37
:1003700001684FF6FE72114001600021016041608A
:100380008160C1606A496A4A0839904203D148686D
:1003900040F00F0006E0664A1432904204D14868EB
:1003A00040F0F00048607047614A2832904203D123
:1003B000486840F47060F5E75D4A3C32904203D1F2
:1003C000486840F47040EDE7594A5032904203D1FA
:1003D000486840F47020E5E7554A6432904203D102
:1003E000486840F47000DDE7514A7832904203D10A
:1003F000486840F07060D5E74E4A111F904203D123
:10040000086840F00F0006E04A4A1432904204D1D6
:10041000086840F0F00008607047464A2832904271
:1004200003D1086840F47060F5E7424A3C329042DC
:1004300003D1086840F47040EDE73E4A50329042E4
:10044000EAD1086840F47020E5E730B5026847F665
:10045000F0739A430C6A8B682343D1E904452C431B
:1004600023438C692343CC6923434C6A23438C6A1E
:10047000234313430360CA6842600A688260496884
:10048000C16030BD0021016041608160C1600161D7
:1004900041618161C16101624162816270470029ED
:1004A000016802D041F0010102E04FF6FE721140F6
:1004B00001607047002A026801D00A4300E08A43C5
:1004C0000260704741607047406880B270470246E2
:1004D0000020D10002D51749083901E01449083934
:1004E0000968114200D001207047C10003D51149AD
:1004F000091F086070470E49083948607047024676
:100500000020D10002D50B49083901E0084908391B
:100510000968114200D001207047C10003D5054988
:10052000091F086070470249083948607047000099
:100530000800024008040240374900200860091DF5
:100540000860091D0860091D0860334933481431EB
:100550000860704730B5304A8379016853B3136837
:100560008B431360111D0B680468A3430B60017972
:1005700011440B68046823430B60274B0833196848
:100580000468A14319601C1D21680568A943216006
:100590004179102905D011440A68006802430A60B5
:1005A00030BD196802681143196021680068014371
:1005B000216030BD0079104402688A43026030BD7A
:1005C0000021016001710C22427181717047124952
:1005D00010310A6802430A60704701460E4A002043
:1005E000143212680A4200D0012070470A491431BF
:1005F00008607047084A014600201268064B0A400E
:1006000014331B680B4202D0002A00D0012070472F
:10061000014914310860704700040140FFFF0F00DA
:100620008F4910B5884206D10121042000F049FA13
:10063000002104203BE08B49884206D1012108209B
:1006400000F03FFA0021082031E08749884206D1B6
:100650000121102000F035FA0021102027E0834905
:10066000884206D10121202000F02BFA0021202011
:100670001DE07F49884206D10121402000F021FA87
:100680000021402013E07B49884206D101218020CF
:1006900000F017FA0021802009E0774988420AD14A
:1006A00084150121204600F00CFA00212046BDE807
:1006B000104000F006BA10BD10B50121084600F048
:1006C00000FA0021BDE81040012000F0FAB9F0B5B1
:1006D000CC78002204F00F03E40601D58C78234384
:1006E0000C784FF00F0C14F0FF0F4FF0010E1BD0E1
:1006F00005680E880EFA02F42640A64210D1960034
:100700000CFA06F725EA070703FA06F5CE783D430B
:10071000282E02D0482E02D002E0446100E004619D
:10072000521C082AE5D305600A88FF2A1CD94468B0
:10073000002202F108060EFA06F50E882E40AE429F
:100740000ED196000CFA06F7BC4303FA06F7CE78F2
:100750003C43282E00D14561CE78482E00D105615A
:10076000521C082AE5D34460F0BD4FF6FF710180AA
:10077000022181700421C1707047024600209268F6
:100780000A4200D001207047806880B2704702465C
:100790000020D2680A4200D001207047C06880B2B1
:1007A000704701617047416170470AB1016170474C
:1007B00041617047C160704741F48032826181615C
:1007C00082618169806970472C4B10B51A684FF6B9
:1007D0008074224042EA00100843186010BD284986
:1007E000C8617047F0B5254C002801DAE36900E0E4
:1007F0006368450D2E0185B2C0F30157B540C0F3C3
:100800000342032F05D0C6020AD503269640B34300
:1008100007E023F07062636823F07063636002E0B6
:10082000AB4343F0706201B12A43002801DAE26170
:10083000F0BD6260F0BD10B58A0721F003040F49D6
:10084000120F21440F238C6893409C438C608B686B
:10085000904003438B6010BD0949C1F8DC0070472C
:1008600000080140000C014000100140001401404C
:1008700000180140001C0140002001400000014020
:1008800000002042A548016841F001010160416873
:10089000A34A114041600168A24A11400160016809
:1008A00021F480210160416821F4FE0141604FF490
:1008B0001F018160704799490A6822F480320A60FA
:1008C0000A6822F480220A60B0F5803F07D0B0F5B4
:1008D000802F03D1086840F4A020086070470868A2
:1008E00040F48030F9E70346002059098B4A01297A
:1008F0000AD002290AD0516A03F01F020123934053
:100900000B4200D0012070471168F5E7116AF3E748
:1009100018B500204FF4A06400903120FFF7E3FFEA
:100920000099491C0091A14201D00028F5D0312046
:10093000FFF7D9FF002800D0012018BD774A1168C1
:1009400021F0F80141EAC000106070477649086064
:100950007047724B5A68084322F47C121043586067
:1009600070477149086670476C4A516821F003016D
:100970000143516070476948406800F00C007047BF
:10098000664A516821F0F001014351607047634AA3
:10099000516821F4E0610143516070475F4A51683A
:1009A00021F4605141EAC000506070475B4A002961
:1009B000517A01D0014300E08143517270475A4996
:1009C000C1F8D8007047554A516821F440410143AD
:1009D000516070475149002281F8202081F8202081
:1009E000012802D0042802D1052081F82000704798
:1009F0004E490860704749490A6A02430A627047D3
:100A00004A4944390860704730B5444A5168484BF8
:100A100011F00C0103D0042901D0082901D0036092
:100A200012E05168536801F470114FF0020413F49E
:100A3000803F04EB914102D053689B0301D53D4BAD
:100A400000E03B4B5943016051680F2303EA111149
:100A5000394B5C5C0168E14041605468072505EA58
:100A600014241C5D21FA04F48460546805EAD4243B
:100A70001B5DD940C1605268032303EA92322E4BBA
:100A80001B1F9A5CB1FBF2F1016130BD234A0029C2
:100A9000516901D0014300E08143516170471F4A11
:100AA0000029916901D0014300E0814391617047C1
:100AB0001A4A0029D16901D0014300E08143D16184
:100AC0007047164A0029D16801D0014300E08143F4
:100AD000D1607047114A0029116901D0014300E03B
:100AE00081431161704711494039086070470E49D0
:100AF000C86470470949C87170470848416A41F0A5
:100B0000807141627047054A0146002092680A429E
:100B100000D00120704701498872704700100240E0
:100B20000000FFF8FFFFF6FE000042428004424250
:100B300000127A0000093D0018000020C44910B5D9
:100B400088420AD101218C032046FFF7BAFF2046D4
:100B5000BDE810400021FFF7B4BFBE49884202D172
:100B600001214C0410E0BC49884202D101218C04CF
:100B70000AE0BA49884202D10121CC0404E0B84914
:100B800088420AD101210C052046FFF7A3FF204629
:100B9000BDE810400021FFF79DBF10BD30B50446F1
:100BA000008A85B00D464CF6FF710840E988014384
:100BB0002182A0894EF6F3110840A9882A891143A1
:100BC0006A8902431143A181A08A4FF6FF41084080
:100BD000A9890143A1826846FFF716FF9C48844219
:100BE00001D1039800E00298A189090400EBC0013B
:100BF00001EB0010296801D5490000E08900B0FB35
:100C0000F1F06422B0FBF2F109010B096FF0180555
:100C10006B4300EB8300A3891D044FF0320306D51C
:100C200003EBC000B0FBF2F000F0070005E003EBBF
:100C30000010B0FBF2F000F00F000843208105B077
:100C400030BD4FF41651016000218180C1800181C7
:100C50000C2242818181704710B5028A4FF2FF0356
:100C60001A400B884C8823438C88C9880C43234343
:100C70001343038210BD0021018041808180C18027
:100C800070470029818902D041F4005101E021F42C
:100C900000518181704710B5C1F3421301F01F0468
:100CA0000121A140012B07D0022B07D01430002ACC
:100CB000026805D00A4304E00C30F8E71030F6E78C
:100CC0008A43026010BD002A828A01D00A4300E0F4
:100CD0008A4382827047028A22F00F020282028ACD
:100CE0000A4302827047828922F4006282818289EB
:100CF0000A43828170470029818902D041F00201B4
:100D000001E021F0020181817047028A22F0200275
:100D10000282028A0A43028270470029018A02D0B5
:100D200041F4804101E021F4804101827047C1F328
:100D30000801818070478088C0F30800704781896E
:100D400041F0010181817047028BD2B20283028B94
:100D500042EA012101837047028B02F47F42028341
:100D6000028B0A43028370470029818A02D041F036
:100D7000200101E021F02001818270470029818A51
:100D800002D041F0100101E021F010018182704792
:100D90000029818A02D041F0080101E021F0080118
:100DA000818270470029818902D041F4004101E02D
:100DB000C1F30E01818170470029818A02D041F47C
:100DC000006101E021F4006181827047828A22F093
:100DD00004028282828A0A43828270470029818AC1
:100DE00002D041F0020101E021F00201818270474E
:100DF0000246002012880A4200D001207047C943F1
:100E00000180704770B501F01F0501260024C1F371
:100E1000421306FA05F2012B0FD0022B0FD0838A62
:100E20004FEA11210088134206FA01F600EA060093
:100E300001D000B10124204670BD8389F0E7038A08
:100E4000EEE70A0A01219140C94301807047000082
:100E5000003801400044004000480040004C004081
:100E60000050004010B563A001F0EEF8BDE810405E
:100E700063A001F0E9B810B55EA001F0E5F8BDE8A7
:100E8000104063A001F0E0B810B55AA001F0DCF802
:100E9000BDE8104062A001F0D7B810B555A001F030
:100EA000D3F8BDE8104062A001F0CEB810B551A053
:100EB00001F0CAF8BDE8104061A001F0C5B810B556
:100EC0004CA001F0C1F8BDE8104062A001F0BCB830
:100ED00010B548A001F0B8F8BDE8104061A001F0DD
:100EE000B3B810B543A001F0AFF8BDE8104061A061
:100EF00001F0AAB810B53FA001F0A6F8BDE8104077
:100F000060A001F0A1B810B53AA001F09DF8BDE8CD
:100F1000104060A001F098B800F0B2FA00F0A6FC12
:100F200000F078F900F05EFF00F0DAFA5EA001F060
:100F30008BF860A001F088F80123684A684969A02D
:100F400000F0CFFCAFF2E3020021654800F026FD7F
:100F5000AFF2DD020221624800F020FDAFF2C502CF
:100F600005215F4800F01AFDAFF2BF0206215C4880
:100F700000F014FDAFF2EF020321594800F00EFD1E
:100F800057490123594A503159A000F0AAFCAFF249
:100F9000D10253480021503000F000FDAFF2CF02E3
:100FA0004F480221503000F0F9FCAFF2B7024C4834
:100FB0000521503000F0F2FCAFF2B502484806219E
:100FC000503000F0EBFCAFF2E50245480321503011
:100FD00000F0E4FC424800F020FD4148503000F0B1
:100FE0001CFD44F6206400F0EDFD204600F04EFCB0
:100FF000F9E700000A5B494E464F5D203E3E200067
:10100000427574746F6E3120B5A5BBF721000000E6
:10101000427574746F6E3120CBABBBF721000000BA
:10102000427574746F6E3120B3A4B0B42100000017
:10103000427574746F6E3120C1ACB0B421000000F1
:10104000427574746F6E3120C1ACB0B4CACDB7C5EF
:1010500021000000427574746F6E3220B5A5BBF795
:1010600021000000427574746F6E3220CBABBBF769
:1010700021000000427574746F6E3220B3A4B0B4C6
:1010800021000000427574746F6E3220C1ACB0B4A0
:1010900021000000427574746F6E3220C1ACB0B490
:1010A000CACDB7C5210000000A5B494E464F5D20FE
:1010B0003E3E200077656C636F6D6520746F206C19
:1010C0006561726E206A69656A69652073746D3343
:1010D00032206C696272617279210A00391E00083F
:1010E00038000020427574746F6E3100411E000894
:1010F000427574746F6E32007047FEE7FEE7FEE7DC
:10110000FEE77047704770472DE9FF410121052038
:10111000FFF7C5FC4FF4C060FFF7D2F806208DF84A
:10112000080001248DF809408DF80A408DF80B4025
:1011300002A8FFF7CAF828208DF8080002A8FFF7D8
:10114000C4F8ADF80C4004268DF80F6003A92848B8
:10115000FFF7BDFA00210846FFF76DFB00278DF869
:10116000047008208DF8050000948DF8064068464C
:10117000FFF7F0F96503ADF80C508DF80F6003A987
:101180001C48FFF7A4FA0D210220FFF754FB8DF84D
:1011900004700C208DF8050000958DF80640684617
:1011A000FFF7D8F9BDE8FF8110B50120FFF722FA5B
:1011B000002809D01048016881F020010160BDE8D5
:1011C00010400120FFF724BA10BD10B54FF40054B1
:1011D0002046FFF70FFA002809D00748016881F080
:1011E000010101602046BDE81040FFF711BA10BDB3
:1011F00000080140001001400C0C014070470448F9
:101200000168002902D00168491E016070477047DB
:10121000280000202DE9F04190B001210420FFF7C3
:101220003EFC01218803FFF73AFC4FF40070ADF853
:101230003C0018208DF83F0003208D4C8DF83E00B7
:101240000FA92046FFF743FA2115ADF83C10042101
:101250008DF83F100FA92046FFF739FA00244FF40C
:10126000E1300B90ADF834400C20DFF80882ADF887
:101270003040ADF83600ADF83240ADF838400BA93B
:101280004046FFF78BFC4FF44070FFF719F825201C
:101290008DF8000006208DF801008DF80240012035
:1012A0008DF803006846FFF710F8012240F2244150
:1012B0004046FFF7F0FC012240214046FFF703FDC6
:1012C00001210846FFF7E2FB08F104066A48009690
:1012D000CDE9010403A9FF20802581E83100202009
:1012E0000694CDE907404FF44050CDE90904634F1F
:1012F00069463846FFF7A9F8A802FFF7F6F8012279
:1013000008213846FFF7D6F801213846FFF7C7F81D
:1013100001210846FFF7BAFB574803A9FF30CDE982
:101320000060102002904FF47A7081E8310068016B
:10133000CDE90840069407940A94504C6946143C41
:101340002046FFF782F801212046FFF7A8F8012187
:101350004046FFF796FC10B0BDE8F08110B504469A
:10136000FFF7E5FC80212046FFF742FD0028F9D079
:1013700010BD2DE9F04115460E460746002405E054
:10138000315D3846FFF7EAFF641CE4B2AC42F7D3A4
:1013900040213846FFF72CFD0028F9D0DCE770B576
:1013A0000D46064600243046295DFFF7D7FF641C32
:1013B000285D0028F7D140213046FFF719FD0028AD
:1013C000F9D070BD70B50446080ACDB2014620467A
:1013D000FFF7ADFC80212046FFF70AFD0028F9D079
:1013E00029462046FFF7A3FC80212046FFF700FD99
:1013F0000028F9D070BD70B51E4D0446C1B2284614
:10140000FFF795FC80212846FFF7F2FC0028F9D071
:10141000204670BD70B5174D0446C1B22846FFF78F
:1014200086FC80212846FFF7E3FC0028F9D02046FF
:1014300070BD10B50F4C20212046FFF7D9FC0028C5
:10144000F9D02046BDE81040FFF775BC10B5094C37
:1014500040F224412046FFF7D5FC002806D000F0DA
:1014600081F82046BDE81040FFF765BC10BD0000C4
:101470000008014000380140D80000205800024018
:1014800038B501210820FFF70AFB2020ADF8000045
:1014900010208DF803000320104C8DF802006946DF
:1014A0002046FFF714F90121ADF8001069462046E7
:1014B000FFF70DF90221ADF8001069462046FFF74D
:1014C00006F920212046FFF76CF901212046FFF79D
:1014D00068F902212046FFF764F938BD000C01408D
:1014E00001214020FFF7D2BA70B56B4C05460021B0
:1014F0002046FEF7D4FF29462046FEF7E3FF0121F0
:101500002046FEF7CCFFBDE87040012280216348F1
:10151000FFF7D9BB70B5624C0D46A8B1022104F8A3
:10152000011B04F8015B25B101462A46204600F064
:10153000B5FD6019032100F8011B5949401A80B21A
:10154000FFF7D2FF002070BD56A000F07DFD58A02F
:1015500000F07AFD4E225AA161A000F0EBFD4FF0A1
:10156000FF3070BD70B54C4E002114363046FEF78A
:1015700096FF3046FEF7A8FF5D4DC0F1FF045DA069
:101580002C8000F061FD21465EA000F05DFD4FF46F
:101590000030FEF7AAFF4049FF204439C865012109
:1015A0003046FEF77CFF288840F44040288070BD1C
:1015B0002DE9F047584E0C465FEA00096FF001072D
:1015C00014D09CB14A48058829041BD54FF0000867
:1015D000A0F80080042D17D232A000F035FD4FA0F6
:1015E00000F032FD6FF00200BDE8F0872DA000F0A2
:1015F0002BFD4FA000F028FD4FF4997230A138A0C8
:1016000000F098FD3846EFE7B6F8010040BA608078
:10161000281F87B237A000F017FD39464AA000F016
:1016200013FD6288BA421CD1F11C484600F036FD19
:101630002946394800F04BFD2EA000F005FD6188D9
:1016400046A000F001FD2BA000F0FEFC494648A09A
:1016500000F0FAFC27A000F0F7FC48A000F0F4FC32
:1016600012E024A000F0F0FC61883CA000F0ECFC4B
:101670000CA000F0E9FC46A000F0E6FC2946264854
:1016800000F025FDA4F80280034801211430FEF784
:1016900006FF0020A8E70000440002400038014097
:1016A000D70100200A5B4552525D203E3E200000DB
:1016B00064617461204973204E756C6C200A0000CF
:1016C0002E2E5C2E2E5C557365725C636F6D6D6F94
:1016D0006E5C646174615F7061636B2E6300000017
:1016E0000A4572726F723A25732C25640D0A000048
:1016F0002C0000200A5B44454255475D203E3E20B9
:1017000000000000627566665F6C656E6774682035
:101710003D2025640A200000D80000206461746127
:101720007061636B206973206D617221000000009D
:1017300062756666206F72206C656E206973204E3C
:10174000554C4C0A00000000636865636B5F646180
:1017500074615F6C656E203D202564006461746176
:101760005F6C656E677468203D2025640000000092
:1017700064617461203D2025730000006461746120
:101780002068616E646C65206F6BA3A1000000008F
:1017900064617461206C656E677468206973206E83
:1017A0006F7420657175616C2100000010B50178BF
:1017B000202912D0092910D00A290ED00C290CD0CA
:1017C00008290AD00D2908D0C9B2401C02460B4690
:1017D0002D2904D02B2902D003E0401CE7E7117823
:1017E000421C0020A1F13004092C07D800EB800036
:1017F00001EB400012F8011B3038F3E72D2B00D12C
:10180000404210BD7CB5061E00DA704200220A2359
:101810006C4690FBF3F503FB150590FBF3F03035B8
:10182000A554521C0028F4DC002E02DA2D20A0540E
:10183000521C0020A05402E0A05C01F8010B521ED3
:10184000FAD57CBD10B5002A07D0034611F8014B2C
:1018500003F8014B2CB1521EF8D110BD03F8011B47
:1018600000E00021521EF9D110BD000013480168AC
:1018700041F080710160124800214160016841F02F
:101880000101016070470E484068704711B50C4C6B
:101890000099002001EBC1016268CB0061689142B0
:1018A000FCD002D9A1EB020202E06FEA02020A4474
:1018B00010440A469842F1D318BD0000FCED00E048
:1018C000001000E010B5DE48046807E0DDA000F07D
:1018D000BBFB211DDEA000F0B7FBE46C002CF5D1B2
:1018E00010BD2DE9FC411E4615460C0007460AD1E5
:1018F000DCA000F0A9FBDEA000F0A6FB3122E2A1F3
:10190000E8A000F017FC5021204600F0E0FB202268
:101910003946201DFFF796FF14F8240F20F00F0022
:10192000093020F0F000903020700920A07044F8B9
:10193000245C607866F301006070A84714F8011F0A
:1019400060F3830104F8251B002004F84A09D9A09C
:1019500000F07AFBDBA000F077FBB94A1068014683
:1019600000E0C06C0028FCD1E164DCA0146000F051
:101970006BFB94F82500C0F3810100F00300CDE972
:10198000000194F8240094F8263000F00F02211D85
:10199000D54800F059FBBDE8FC4193E770B515460A
:1019A0000E4604000AD1AFA000F04EFBB0A000F03C
:1019B0004BFB5922B4A1BBA000F0BCFB072E03D007
:1019C00004EB8600856270BD002104EB8100491C98
:1019D000C9B285620729F8D370BD994A06E08142F1
:1019E00002D1C96C116001E001F14C0211680029BB
:1019F000F5D1704770B50546002405EB8400806A78
:101A000030B190A000F020FB2146B8A000F01CFBF4
:101A1000641CE4B2072CF0D370BD90F82600704728
:101A200090F8240000F00F00704770B5044600687D
:101A3000804794F825100025C1F38102824228D006
:101A400094F84A20521CD2B284F84A20022A20D3A9
:101A500060F3830184F8251084F84A5094F8240038
:101A600000F00F01092904D0022902D0010705D096
:101A70000FE020F00F0084F824000AE020F00F00AF
:101A8000401C84F824008BA000F0DEFA9BA000F03C
:101A9000DBFA94F8240010F00F0123D0012953D071
:101AA000022965D194F84910491CC9B284F849103B
:101AB0000F295DD320F00F00093020F0F0009030A6
:101AC00084F82400000953D084F84950A16A09B170
:101AD0002046884714F8240F20F00F00093020F02A
:101AE000F00044E094F82500C0F3810100F0030009
:101AF00081423DD184F8265094F84B00401CC0B27E
:101B000084F84B00322833D394F84800401C10F07E
:101B1000FF0084F8480008D084F84850032084F877
:101B20002600616B09B12046884794F84B00FF28D6
:101B300002D1322084F84B005EA000F085FABDE8A7
:101B4000704071A000F080BA94F8261089B1032982
:101B50000ED1A16B09B12046884784F84B5014F888
:101B6000240F20F00F00093020F0F00030302070FA
:101B700070BD94F849100F2918D80221B1EB101F3D
:101B800014D184F82610216B09B12046884749A05A
:101B900000F05AFA5EA000F057FA14F8240F20F073
:101BA0000F00093020F0F0009030E0E720F00F0047
:101BB00004F8495F801C20F0F000A570203004F884
:101BC000250C70BD1E4810B5046803E02046FFF7E1
:101BD0002CFFE46C002CF9D110BD10B590F8260054
:101BE00007282BD2DFE800F004090E13181D22008D
:101BF00014A000F029FA48A01CE012A000F024FA7A
:101C00004CA017E00FA000F01FFA51A012E00DA0A9
:101C100000F01AFA55A00DE00AA000F015FA5AA03B
:101C200008E008A000F010FA5FA003E005A000F0B3
:101C30000BFA64A0BDE8104000F006BA10BD000029
:101C4000300000200A5B494E464F5D203E3E20009A
:101C5000627574746F6E206E6F646520686176655E
:101C6000202573000A5B4552525D203E3E20000055
:101C700073747275637420627574746F6E20697307
:101C8000206E756C6C2100002E2E5C2E2E5C557320
:101C900065725C636F6D6D6F6E5C627574746F6E90
:101CA0002E6300000A4572726F723A25732C256408
:101CB0000D0A00000A5B44454255475D203E3E2028
:101CC00000000000627574746F6E20637265617449
:101CD0006520737563636573732100000A5B494E69
:101CE000464F5D203E3E20002C2300084275747450
:101CF0006F6E5F4576656E743A256400CACDB7C5D0
:101D0000C1CBB0B4BCFC0000B3A4B0B40000000070
:101D1000CBABBBF700000000CCEDBCD3C4E3B5C433
:101D2000B0B4CFC2B4A5B7A2B5C4B4A6C0EDC2DFEB
:101D3000BCAD0000CCEDBCD3C4E3B5C4CACDB7C5BF
:101D4000B4A5B7A2B5C4B4A6C0EDC2DFBCAD000057
:101D5000CCEDBCD3C4E3B5C4CBABBBF7B4A5B7A241
:101D6000B5C4B4A6C0EDC2DFBCAD0000CCEDBCD3A1
:101D7000C4E3B5C4B3A4B0B4B4A5B7A2B5C4B4A603
:101D8000C0EDC2DFBCAD0000CCEDBCD3C4E3B5C434
:101D9000B3A4B0B4CACDB7C5B4A5B7A2B5C4B4A6F0
:101DA000C0EDC2DFBCAD0000CCEDBCD3C4E3B5C414
:101DB000C1ACD0F8B4A5B7A2B5C4B4A6C0EDC2DF1B
:101DC000BCAD0000CCEDBCD3C4E3B5C4C1ACD0F80D
:101DD000B4A5B7A2CACDB7C5B5C4B4A6C0EDC2DF1D
:101DE000BCAD000038B501211420FEF758FE0120DB
:101DF000ADF8000004248DF8034069461348FEF74F
:101E000066FCE002ADF800008DF80340694610481A
:101E1000FEF75DFC38BD70B50C460546FEF7ADFC1F
:101E2000012801D0002070BD21462846FEF7A5FC00
:101E30000128F9D0012070BD01210448FEF79DBCA6
:101E40004FF400510248FEF798BC00000008014022
:101E5000001001402DE9F041141E0E4680464FF05F
:101E600000054FF020070FDD0021304601E0401C47
:101E7000491C0278002AFAD1A14201DB002400E0CB
:101E8000641A980700D53027D80706D00DE03946E8
:101E9000404600F0F5F8641E6D1C002CF7DC04E0F1
:101EA000404600F0EDF86D1C761C31780029F7D122
:101EB00005E03946404600F0E3F8641E6D1C002C36
:101EC000F7DC2846BDE8F0812DE9FE4381460AA8EB
:101ED00090E8C01000200546804619B19BB10A2A3F
:101EE0000DD010E030208DF800008DF801803B46C9
:101EF000324669464846FFF7ADFFBDE8FE830B1E3C
:101F000001DA012059428DF80B800DF10B040CE031
:101F1000B1FBF2F302FB13130A2B01DB63443A3BE0
:101F2000B1FBF2F1303304F8013D0029F0D160B18A
:101F300046B1B80706D52D21484600F0A1F86D1C22
:101F4000761E02E02D2004F8010D3B463246214664
:101F50004846FFF77FFF2844CFE72DE9FF470025DC
:101F600016460C4681466127A8465FE0252857D1D2
:101F7000002214F8010F134698B3252850D02D28BD
:101F800004D1012301E043F00203641C20783028CF
:101F9000F9D005E002EB8201490030394218641C97
:101FA0002078A0F130010929F4D9C1B273290CD0ED
:101FB000642811D069280FD0782813D0582819D058
:101FC00075281FD0632823D02FE002CE01B931A19C
:101FD0004846FFF73FFF0BE08DE88C0002CE01235F
:101FE00014E026E08DE88C0008E04846FFF76CFF1F
:101FF00005441AE041200092CDE9013002CE0023D1
:102000001022F2E78DE88C0002CE00230A22ECE7D2
:1020100016F8040B8DF80C008DF80D8003A9D7E796
:10202000C1B2484600F02CF86D1C641C20780028D2
:102030009CD1B9F1000F03D0D9F8001081F80080CD
:1020400004B02846BDE8F0870FB4002010B503AAFD
:102050000299FFF782FF10BC5DF814FB0FB410B5B6
:1020600004AA02A80399FFF778FFF4E70FB410B5AC
:1020700005AA02A80499FFF770FFECE7002070475B
:1020800028B1026811700168491C01607047084658
:10209000FFF7C0B9286E756C6C29000040EA010397
:1020A0009B0703D009E008C9121F08C0042AFAD20E
:1020B00003E011F8013B00F8013B521EF9D27047D2
:1020C000D2B201E000F8012B491EFBD2704700227A
:1020D000F6E710B513460A4604461946FFF7F0FF27
:1020E000204610BD30B50B460146002020220124B9
:1020F00009E021FA02F59D4205D303FA02F5491BD6
:1021000004FA02F52844151EA2F10102F1DC30BDEB
:10211000064C074D06E0E06840F0010394E8070034
:1021200098471034AC42F6D3FEF706F8182400089E
:10213000382400080FB4054B10B503A9044A0298CF
:1021400000F018F810BC5DF814FB0000F71300084D
:102150003400002002E008C8121F08C1002AFAD18A
:1021600070477047002001E001C1121F002AFBD117
:10217000704700002DE9FF4F8BB09A460F46054689
:10218000002606E025280BD052460D9990476D1C7D
:10219000761C28780028F5D10FB03046BDE8F08FC6
:1021A0000024A0460122604900E0044315F8013FE5
:1021B000203B02FA03F00842F7D128782E2817D1E5
:1021C00015F8010F44F004042A280ED06FF02F02F6
:1021D0002878A0F1300109290AD808EB880102EB20
:1021E000410100EB01086D1CF2E757F8048B6D1CF0
:1021F000287869283ED006DC0028CDD063280BD093
:10220000642804D136E0732810D075284BD052468C
:102210000D999047761C85E017F8040B8DF80000A7
:1022200000208DF80100E946012003E057F8049BE7
:102230004FF0FF3061074FF0000401D40AE0641C46
:1022400044450DDA8442FADB19F804100029F6D16E
:1022500006E0641C8442FCDB19F804100029F8D164
:10226000264404E019F8010B52460D999047641E6C
:10227000F8D257E001CF4FF00A0B002802DA4042B3
:102280002D2102E0210504D52B218DF824100121F8
:1022900003E0E10705D02021F7E70DF120090891BF
:1022A0000CE00021F9E701CF4FF00A0BF9E759469E
:1022B000FFF718FF01F1300209F8012D0028F6D1CF
:1022C000ADEB090000F1200B600701D44FF00108CD
:1022D000D84502DDA8EB0B0000E00020804600247A
:1022E00006E009A85246005D0D999047641C761CD3
:1022F00008988442F5DB04E0302052460D9990475F
:10230000761CB8F10001A8F10108F5DC05E019F828
:10231000010B52460D999047761CBBF10001ABF1C1
:10232000010BF4DC6D1C34E709280100627574743C
:102330006F6E2073747275637420696E666F726D50
:102340006174696F6E3A0A2020202020202020200E
:10235000202020202062746E2D3E4E616D653A254E
:1023600073200A2020202020202020202020202030
:102370002062746E2D3E427574746F6E5F5374618B
:1023800074653A2564200A20202020202020202067
:10239000202020202062746E2D3E427574746F6E72
:1023A0005F547269676765725F4576656E743A253A
:1023B00064200A20202020202020202020202020EF
:1023C0002062746E2D3E427574746F6E5F54726934
:1023D000676765725F4C6576656C3A2564200A20F4
:1023E0002020202020202020202020202062746E09
:1023F0002D3E427574746F6E5F4C6173745F4C65F3
:1024000076656C3A2564200A202020202020202098
:102410002020202020200000382400080000002078
:102420003800000054210008702400083800002003
:10243000880900006421000800A24A04000000008E
:102440000000000001020304060708090204060850
:10245000000000000102030401020304060708094A
:10246000000000000000000000000000000000006C
:0400000508000131BD
:00000001FF
