:020000040800F2
:10000000280A0020450100080D0D00080F0D00080A
:10001000110D0008130D0008150D00080000000068
:10002000000000000000000000000000170D0008A4
:10003000190D0008000000001B0D0008230E000829
:100040005F0100085F0100085F0100085F01000810
:100050005F0100085F010008BD0D00085F01000896
:100060005F0100085F0100085F0100085F010008F0
:100070005F0100085F0100085F0100085F010008E0
:100080005F0100085F0100085F0100085F010008D0
:100090005F0100085F0100085F0100085F010008C0
:1000A0005F0100085F0100085F0100085F010008B0
:1000B0005F0100085F0100085F0100085F010008A0
:1000C0005F0100085F0100085F0100085F01000890
:1000D0005F010008A70F00085F0100085F0100082A
:1000E000DF0D00085F0100085F0100085F010008E4
:1000F0005F0100085F0100085F0100085F01000860
:100100005F0100085F0100085F0100085F0100084F
:100110005F0100085F0100085F0100085F0100083F
:100120005F0100085F0100085F0100085F0100082F
:10013000DFF80CD001F08AF9004800479D0C000858
:10014000280A00200648804706480047FEE7FEE7E9
:10015000FEE7FEE7FEE7FEE7FEE7FEE7FEE7FEE777
:1001600009020008310100080CB500224C48009239
:100170000192016841F4803101604FF4A06301688D
:1001800001F4003101910099491C0091019911B9C4
:1001900000999942F3D10168890333D50121019176
:1001A00040490A6842F010020A600A6822F003021D
:1001B0000A600A6842F002020A60416841604168D0
:1001C0004160416841F480614160416821F47C11E3
:1001D0004160416841F4E8114160016841F080717B
:1001E000016001688901FCD5416821F0030141608B
:1001F000416841F0020141604168C1F38101022977
:10020000FAD10CBD01920CBD254810B5016841F032
:10021000010101604168244A114041600168234A9C
:1002200011400160016821F480210160416821F4DE
:10023000FE0141604FF41F018160FFF795FF1C49EB
:100240004FF00060086010BD154A10B55068194B9A
:1002500010F00C01184803D0042901D0082901D05E
:10026000036012E05168536801F470114FF002040A
:1002700013F4803F04EB914102D053689B0301D5F6
:100280000E4B00E00B4B5943016051680A4AC1F321
:100290000311121D515C0268CA40026010BD0000CB
:1002A00000100240002002400000FFF8FFFFF6FEB1
:1002B00008ED00E000127A000000002000093D0077
:1002C0002849084328490860704730B50F23C27891
:1002D00001780125F2B1244A126801F1E02102F40B
:1002E000E062C2F5E062120AC2F10404D34042782F
:1002F000A24084781C401443220181F80024007835
:1003000000F01F018D404009800000F1E020C0F89E
:10031000005130BD01F01F0085404809800000F108
:10032000E020C0F8805130BD104A114001430E4812
:10033000001F016070470C4A121D0029116801D08E
:10034000014300E08143116070474FF0E021042831
:10035000086903D020F004000861704740F00400F1
:10036000FAE700000000FA050CED00E080FFFF1F37
:10037000374900200860091D0860091D0860091D33
:1003800008603349334814310860704730B5304A4B
:100390008379016853B313688B431360111D0B6895
:1003A0000468A3430B60017911440B68046823437C
:1003B0000B60274B083319680468A14319601C1DA2
:1003C00021680568A94321604179102905D01144AD
:1003D0000A68006802430A6030BD19680268114368
:1003E0001960216800680143216030BD0079104424
:1003F00002688A43026030BD0021016001710C2255
:10040000427181717047124910310A6802430A60D3
:10041000704701460E4A0020143212680A4200D08A
:10042000012070470A49143108607047084A0146A4
:1004300000201268064B0A4014331B680B4202D09E
:10044000002A00D00120704701491431086070472C
:1004500000040140FFFF0F008F4910B5884206D10C
:100460000121042000F049FA002104203BE08B49DF
:10047000884206D10121082000F03FFA002108201F
:1004800031E08749884206D10121102000F035FA79
:100490000021102027E08349884206D10121202035
:1004A00000F02BFA002120201DE07F49884206D170
:1004B0000121402000F021FA0021402013E07B4977
:1004C000884206D10121802000F017FA0021802007
:1004D00009E0774988420AD184150121204600F0BD
:1004E0000CFA00212046BDE8104000F006BA10BD0D
:1004F00010B50121084600F000FA0021BDE81040C7
:10050000012000F0FAB9F0B5CC78002204F00F0316
:10051000E40601D58C7823430C784FF00F0C14F0CF
:10052000FF0F4FF0010E1BD005680E880EFA02F483
:100530002640A64210D196000CFA06F725EA0707D6
:1005400003FA06F5CE783D43282E02D0482E02D07D
:1005500002E0446100E00461521C082AE5D3056012
:100560000A88FF2A1CD94468002202F108060EFA04
:1005700006F50E882E40AE420ED196000CFA06F714
:10058000BC4303FA06F7CE783C43282E00D14561E0
:10059000CE78482E00D10561521C082AE5D344606C
:1005A000F0BD4FF6FF710180022181700421C170FE
:1005B00070470246002092680A4200D0012070472E
:1005C000806880B2704702460020D2680A4200D09C
:1005D00001207047C06880B2704701617047416177
:1005E00070470AB10161704741617047C16070474F
:1005F00041F48032826181618261816980697047E2
:100600002C4B10B51A684FF68074224042EA001055
:100610000843186010BD2849C8617047F0B5254CE3
:10062000002801DAE36900E06368450D2E0185B218
:10063000C0F30157B540C0F30342032F05D0C602F3
:100640000AD503269640B34307E023F0706263683F
:1006500023F07063636002E0AB4343F0706201B16A
:100660002A43002801DAE261F0BD6260F0BD10B5F6
:100670008A0721F003040F49120F21440F238C68CD
:1006800093409C438C608B68904003438B6010BD0B
:100690000949C1F8DC00704700080140000C014026
:1006A000001001400014014000180140001C0140EE
:1006B000002001400000014000002042A5480168E0
:1006C00041F0010101604168A34A114041600168A5
:1006D000A24A11400160016821F480210160416853
:1006E00021F4FE0141604FF41F0181607047994978
:1006F0000A6822F480320A600A6822F480220A60C2
:10070000B0F5803F07D0B0F5802F03D1086840F4E2
:10071000A02008607047086840F48030F9E703467D
:10072000002059098B4A01290AD002290AD0516AAE
:1007300003F01F02012393400B4200D001207047B9
:100740001168F5E7116AF3E718B500204FF4A064CB
:1007500000903120FFF7E3FF0099491C0091A1426E
:1007600001D00028F5D03120FFF7D9FF002800D0B4
:10077000012018BD774A116821F0F80141EAC00054
:1007800010607047764908607047724B5A6808439A
:1007900022F47C1210435860704771490866704714
:1007A0006C4A516821F00301014351607047694868
:1007B000406800F00C007047664A516821F0F00173
:1007C000014351607047634A516821F4E06101437D
:1007D000516070475F4A516821F4605141EAC0009E
:1007E000506070475B4A0029517A01D0014300E014
:1007F0008143517270475A49C1F8D8007047554A31
:10080000516821F440410143516070475149002231
:1008100081F8202081F82020012802D0042802D16C
:10082000052081F8200070474E490860704749490B
:100830000A6A02430A6270474A49443908607047AD
:1008400030B5444A5168484B11F00C0103D00429DB
:1008500001D0082901D0036012E05168536801F407
:1008600070114FF0020413F4803F04EB914102D069
:1008700053689B0301D53D4B00E03B4B594301605E
:1008800051680F2303EA1111394B5C5C0168E140A8
:1008900041605468072505EA14241C5D21FA04F41C
:1008A0008460546805EAD4241B5DD940C160526855
:1008B000032303EA92322E4B1B1F9A5CB1FBF2F129
:1008C000016130BD234A0029516901D0014300E094
:1008D0008143516170471F4A0029916901D001434A
:1008E00000E08143916170471A4A0029D16901D023
:1008F000014300E08143D1617047164A0029D16865
:1009000001D0014300E08143D1607047114A0029C2
:10091000116901D0014300E0814311617047114921
:100920004039086070470E49C86470470949C8716A
:1009300070470848416A41F0807141627047054A3A
:100940000146002092680A4200D001207047014908
:1009500088727047001002400000FFF8FFFFF6FEAB
:10096000000042428004424200127A0000093D0029
:1009700018000020C44910B588420AD101218C0317
:100980002046FFF7BAFF2046BDE810400021FFF7E0
:10099000B4BFBE49884202D101214C0410E0BC49D9
:1009A000884202D101218C040AE0BA49884202D16E
:1009B0000121CC0404E0B84988420AD101210C0588
:1009C0002046FFF7A3FF2046BDE810400021FFF7B7
:1009D0009DBF10BD30B50446008A85B00D464CF66B
:1009E000FF710840E98801432182A0894EF6F31186
:1009F0000840A9882A8911436A8902431143A181C9
:100A0000A08A4FF6FF410840A9890143A1826846A8
:100A1000FFF716FF9C48844201D1039800E002983A
:100A2000A189090400EBC00101EB0010296801D580
:100A3000490000E08900B0FBF1F06422B0FBF2F164
:100A400009010B096FF018056B4300EB8300A389C4
:100A50001D044FF0320306D503EBC000B0FBF2F0EB
:100A600000F0070005E003EB0010B0FBF2F000F02F
:100A70000F000843208105B030BD4FF416510160CE
:100A800000218180C18001810C22428181817047D7
:100A900010B5028A4FF2FF031A400B884C8823439B
:100AA0008C88C9880C4323431343038210BD002163
:100AB000018041808180C18070470029818902D0F6
:100AC00041F4005101E021F400518181704710B5DB
:100AD000C1F3421301F01F040121A140012B07D0F3
:100AE000022B07D01430002A026805D00A4304E024
:100AF0000C30F8E71030F6E78A43026010BD002A98
:100B0000828A01D00A4300E08A4382827047028AC7
:100B100022F00F020282028A0A430282704782890F
:100B200022F40062828182890A438281704700290F
:100B3000818902D041F0020101E021F002018181AE
:100B40007047028A22F020020282028A0A4302824D
:100B500070470029018A02D041F4804101E021F46C
:100B6000804101827047C1F308018180704780880D
:100B7000C0F308007047818941F00101818170470D
:100B8000028BD2B20283028B42EA012101837047B9
:100B9000028B02F47F420283028B0A430283704776
:100BA0000029818A02D041F0200101E021F02001DA
:100BB000818270470029818A02D041F0100101E052
:100BC00021F01001818270470029818A02D041F012
:100BD000080101E021F00801818270470029818924
:100BE00002D041F4004101E0C1F30E018181704760
:100BF0000029818A02D041F4006101E021F4006102
:100C000081827047828A22F004028282828A0A43A9
:100C1000828270470029818A02D041F0020101E0FE
:100C200021F00201818270470246002012880A42A8
:100C300000D001207047C9430180704770B501F0B2
:100C40001F0501260024C1F3421306FA05F2012B09
:100C50000FD0022B0FD0838A4FEA11210088134254
:100C600006FA01F600EA060001D000B10124204690
:100C700070BD8389F0E7038AEEE70A0A01219140FB
:100C8000C943018070470000003801400044004023
:100C900000480040004C00400050004000F094F933
:100CA00000F06EFB00F0C0F800F038F800F0BCF97E
:100CB00007A000F0DDFB09A000F0DAFB114C124D9B
:100CC000206880F020012160284600F069FBF7E7EA
:100CD0000A5B494E464F5D203E3E200077656C63BF
:100CE0006F6D6520746F206C6561726E206A696536
:100CF0006A69652073746D3332206C696272617247
:100D000079210A000C0C014020A107007047FEE782
:100D1000FEE7FEE7FEE77047704770472DE9FF41A9
:100D200001210520FFF7D7FD4FF4C060FFF7C8FA97
:100D300006208DF8080001248DF809408DF80A403E
:100D40008DF80B4002A8FFF7C0FA28208DF80800A4
:100D500002A8FFF7BAFAADF80C4004268DF80F6030
:100D600003A92848FFF7CFFB00210846FFF77FFCC7
:100D700000278DF8047008208DF8050000948DF888
:100D800006406846FFF702FB6503ADF80C508DF88E
:100D90000F6003A91C48FFF7B6FB0D210220FFF7E7
:100DA00066FC8DF804700C208DF8050000958DF818
:100DB00006406846FFF7EAFABDE8FF8110B501205A
:100DC000FFF734FB002809D01048016881F02001AA
:100DD0000160BDE810400120FFF736BB10BD10B523
:100DE0004FF400542046FFF721FB002809D00748A4
:100DF000016881F0010101602046BDE81040FFF765
:100E000023BB10BD00080140001001400C0C014044
:100E1000704704480168002902D00168491E01603A
:100E2000704770472800002030B587B001210420AA
:100E3000FFF751FD01218803FFF74DFD4FF40070CE
:100E4000ADF8100018208DF8130003205C4C8DF8CD
:100E5000120004A92046FFF756FB2115ADF810102B
:100E600004218DF8131004A92046FFF74CFB002441
:100E70004FF4E1300090ADF808400C20514DADF832
:100E80000440ADF80A00ADF80640ADF80C406946E4
:100E90002846FFF79FFD4FF44070FFF711FA252118
:100EA0008DF8141006208DF815008DF816400120DD
:100EB0008DF8170005A8FFF708FA012240F2255126
:100EC0002846FFF704FE01212846FFF7F6FD07B08C
:100ED00030BD10B50446FFF746FE80212046FFF7DF
:100EE000A3FE0028F9D010BD2DE9F04115460E46AD
:100EF0000746002405E0315D3846FFF7EAFF641C31
:100F0000E4B2AC42F7D340213846FFF78DFE00280B
:100F1000F9D0BDE8F08170B50D4606460024304694
:100F2000295DFFF7D6FF641C285D0028F7D140211A
:100F30003046FFF779FE0028F9D070BD70B5044641
:100F4000080ACDB201462046FFF70DFE802120465B
:100F5000FFF76AFE0028F9D029462046FFF703FE76
:100F600080212046FFF760FE0028F9D070BD70B5E3
:100F7000144D0446C1B22846FFF7F5FD80212846EE
:100F8000FFF752FE0028F9D0204670BD10B50D4C79
:100F900020212046FFF748FE0028F9D02046BDE872
:100FA0001040FFF7E4BD10B540F225510548FFF7AA
:100FB00045FE002803D0BDE8104000F095B810BDF4
:100FC000000801400038014038B501210820FFF732
:100FD00082FC2020ADF8000010208DF803000320D3
:100FE000104C8DF8020069462046FFF78CFA01216B
:100FF000ADF8001069462046FFF785FA0221ADF8EA
:10100000001069462046FFF77EFA20212046FFF7B0
:10101000E4FA01212046FFF7E0FA02212046FFF71B
:10102000DCFA38BD000C014001214020FFF74ABC2A
:101030002DE9F0410E4605004FF0000401D0804F2D
:1010400008E04FF0FF30BDE8F081295D3846FFF73A
:1010500040FF641CB442F8D33046F4E770B506464E
:101060000C4601F1080000F027FB0546002E25D0B4
:1010700002210170210A6970AC7024B12246314608
:10108000E81C00F0A9F928190321C170211D284688
:10109000FFF7CEFF040022D56AA000F0E9F921464F
:1010A0006BA000F0E5F97A226FA177A000F0E0F9DB
:1010B000284600F0D9FA6FF0010070BD61A000F081
:1010C000D7F975A000F0D4F9492267A16EA000F00D
:1010D000CFF9284600F0C8FA4FF0FF3070BD28461F
:1010E00000F0C2FA002070BD10B55548FFF73FFD73
:1010F0006D4CC1B22068002831DB6C4B42001CD51E
:10110000032982B201D1032A02D89954401C25E058
:10111000401C995440F00040206065A000F0A8F900
:1011200067A000F0A5F962A000F0A2F92088BDE850
:10113000104081B265A000F09BB9022909D00020BF
:10114000206040A000F094F9BDE8104064A000F0D9
:101150008FB982B2401C995440F08040206010BD8D
:101160002DE9F047514E0C465FEA00096FF001058A
:1011700015D0A4B14C48016800291CDA8DB24FF09B
:101180000008C0F80080042D17D22EA000F070F9DE
:1011900057A000F06DF96FF00200BDE8F08729A0BC
:1011A00000F066F957A000F063F940F22F122EA16B
:1011B00035A000F05DF92846EFE7B6F8010040BA27
:1011C0006080281F87B23AA000F052F9394653A038
:1011D00000F04EF96288BA421CD1F11C484600F07A
:1011E000FBF82946314800F010F931A000F040F931
:1011F00061884FA000F03CF92DA000F039F9494674
:1012000050A000F035F92AA000F032F950A000F00B
:101210002FF912E026A000F02BF9618844A000F01D
:1012200027F908A000F024F94EA000F021F9294682
:101230001E4800F0EAF8A4F802800020ADE70000A4
:10124000003801400A5B4552525D203E3E200000BE
:1012500075617274207772697465206572726F723D
:10126000202564200A0000002E2E5C2E2E5C557373
:1012700065725C636F6D6D6F6E5C646174615F70ED
:1012800061636B2E630000000A4572726F723A252B
:10129000732C25640D0A0000646174612049732079
:1012A0004E756C6C200A00002C0000203C000020D1
:1012B0000A5B44454255475D203E3E200000000049
:1012C00072656365697665206F6B2100627566667D
:1012D0005F6C656E677468203D2025640000000027
:1012E00072656365697665206661696C210000003E
:1012F000646174617061636B206973206D61722138
:101300000000000062756666206F72206C656E20BA
:101310006973204E554C4C0A0000000063686563F9
:101320006B5F646174615F6C656E203D20256400B5
:10133000646174615F6C656E677468203D2025642C
:101340000000000064617461203D202573000000EE
:10135000646174612068616E646C65206F6BA3A129
:101360000000000064617461206C656E6774682021
:101370006973206E6F7420657175616C21000000C7
:101380001348016841F080710160124800214160FA
:10139000016841F00101016070470E4840687047E4
:1013A00011B50C4C0099002001EBC1016268CB0023
:1013B00061689142FCD002D9A1EB020202E06FEA1F
:1013C00002020A4410440A469842F1D318BD0000B4
:1013D000FCED00E0001000E040EA01039B0703D0B1
:1013E00009E008C9121F08C0042AFAD203E011F864
:1013F000013B00F8013B521EF9D27047D2B201E026
:1014000000F8012B491EFBD270470022F6E710B509
:1014100013460A4604461946FFF7F0FF204610BD62
:1014200030B50B46014600202022012409E021FAB4
:1014300002F59D4205D303FA02F5491B04FA02F5B1
:101440002844151EA2F10102F1DC30BD064C074D07
:1014500006E0E06840F0010394E807009847103484
:10146000AC42F6D3FEF768FE2417000844170008C4
:101470000FB4054B10B503A9044A029800F018F800
:1014800010BC5DF814FB00006F0F00083000002056
:1014900002E008C8121F08C1002AFAD1704770473D
:1014A000002001E001C1121F002AFBD1704700009B
:1014B0002DE9FF4F8BB09A460F460546002606E001
:1014C00025280BD052460D9990476D1C761C287824
:1014D0000028F5D10FB03046BDE8F08F0024A046BB
:1014E0000122604900E0044315F8013F203B02FA65
:1014F00003F00842F7D128782E2817D115F8010FEC
:1015000044F004042A280ED06FF02F022878A0F1AE
:10151000300109290AD808EB880102EB410100EBF0
:1015200001086D1CF2E757F8048B6D1C28786928B8
:101530003ED006DC0028CDD063280BD0642804D12F
:1015400036E0732810D075284BD052460D9990473D
:10155000761C85E017F8040B8DF8000000208DF84C
:101560000100E946012003E057F8049B4FF0FF30EB
:1015700061074FF0000401D40AE0641C44450DDA11
:101580008442FADB19F804100029F6D106E0641C45
:101590008442FCDB19F804100029F8D1264404E049
:1015A00019F8010B52460D999047641EF8D257E086
:1015B00001CF4FF00A0B002802DA40422D2102E051
:1015C000210504D52B218DF82410012103E0E1072A
:1015D00005D02021F7E70DF1200908910CE000214A
:1015E000F9E701CF4FF00A0BF9E75946FFF718FF6B
:1015F00001F1300209F8012D0028F6D1ADEB090008
:1016000000F1200B600701D44FF00108D84502DD3E
:10161000A8EB0B0000E000208046002406E009A8AB
:101620005246005D0D999047641C761C08988442D0
:10163000F5DB04E0302052460D999047761CB8F156
:101640000001A8F10108F5DC05E019F8010B52468C
:101650000D999047761CBBF10001ABF1010BF4DC56
:101660006D1C34E70928010010B5002821D0114B6A
:101670000022001F196803E0814203D80A46496826
:101680000029F9D152B11368841A9C4204D1006830
:1016900018441060104602E0506000E0186039B154
:1016A00002680B1A934203D10B681A44026049681E
:1016B000416010BD34000020F0B50B30154D20F016
:1016C00007010024144A0FE003688B420BD38B42BE
:1016D00005D95E1A43184768C3E9006700E043680C
:1016E000136002C004E0021D10680028ECD12046FF
:1016F000002802D1286808B10020F0BD064A07483A
:101700001060074A121A22F00702C0E900240120E3
:101710002860D7E738000020340000202C04002087
:101720002806002044170008000000203C000000AC
:1017300090140008801700083C000020EC0900000D
:10174000A014000800A24A040000000000000000ED
:10175000010203040607080902040608000000004D
:101760000102030401020304060708090000000047
:101770000000000000000000000000000000000069
:0400000508000131BD
:00000001FF
